{
  "address": "0x5FbDB2315678afecb367f032d93F642f64180aa3",
  "abi": [
    {
      "inputs": [],
      "stateMutability": "nonpayable",
      "type": "constructor"
    },
    {
      "anonymous": false,
      "inputs": [
        {
          "indexed": true,
          "internalType": "address",
          "name": "owner",
          "type": "address"
        },
        {
          "indexed": true,
          "internalType": "address",
          "name": "approved",
          "type": "address"
        },
        {
          "indexed": true,
          "internalType": "uint256",
          "name": "tokenId",
          "type": "uint256"
        }
      ],
      "name": "Approval",
      "type": "event"
    },
    {
      "anonymous": false,
      "inputs": [
        {
          "indexed": true,
          "internalType": "address",
          "name": "owner",
          "type": "address"
        },
        {
          "indexed": true,
          "internalType": "address",
          "name": "operator",
          "type": "address"
        },
        {
          "indexed": false,
          "internalType": "bool",
          "name": "approved",
          "type": "bool"
        }
      ],
      "name": "ApprovalForAll",
      "type": "event"
    },
    {
      "anonymous": false,
      "inputs": [
        {
          "indexed": true,
          "internalType": "uint256",
          "name": "tokenId",
          "type": "uint256"
        },
        {
          "indexed": true,
          "internalType": "address",
          "name": "seller",
          "type": "address"
        },
        {
          "indexed": false,
          "internalType": "uint256",
          "name": "startingBid",
          "type": "uint256"
        },
        {
          "indexed": false,
          "internalType": "uint256",
          "name": "endTime",
          "type": "uint256"
        }
      ],
      "name": "AuctionCreated",
      "type": "event"
    },
    {
      "anonymous": false,
      "inputs": [
        {
          "indexed": true,
          "internalType": "uint256",
          "name": "tokenId",
          "type": "uint256"
        },
        {
          "indexed": true,
          "internalType": "address",
          "name": "highestBidder",
          "type": "address"
        },
        {
          "indexed": false,
          "internalType": "uint256",
          "name": "highestBid",
          "type": "uint256"
        }
      ],
      "name": "AuctionEnded",
      "type": "event"
    },
    {
      "anonymous": false,
      "inputs": [
        {
          "indexed": false,
          "internalType": "uint256",
          "name": "_fromTokenId",
          "type": "uint256"
        },
        {
          "indexed": false,
          "internalType": "uint256",
          "name": "_toTokenId",
          "type": "uint256"
        }
      ],
      "name": "BatchMetadataUpdate",
      "type": "event"
    },
    {
      "anonymous": false,
      "inputs": [
        {
          "indexed": true,
          "internalType": "uint256",
          "name": "tokenId",
          "type": "uint256"
        },
        {
          "indexed": true,
          "internalType": "address",
          "name": "bidder",
          "type": "address"
        },
        {
          "indexed": false,
          "internalType": "uint256",
          "name": "bidAmount",
          "type": "uint256"
        }
      ],
      "name": "BidPlaced",
      "type": "event"
    },
    {
      "anonymous": false,
      "inputs": [
        {
          "indexed": true,
          "internalType": "address",
          "name": "sender",
          "type": "address"
        },
        {
          "indexed": false,
          "internalType": "uint256",
          "name": "amount",
          "type": "uint256"
        }
      ],
      "name": "FeesReceived",
      "type": "event"
    },
    {
      "anonymous": false,
      "inputs": [
        {
          "indexed": true,
          "internalType": "address",
          "name": "owner",
          "type": "address"
        },
        {
          "indexed": false,
          "internalType": "uint256",
          "name": "amount",
          "type": "uint256"
        }
      ],
      "name": "FeesWithdrawn",
      "type": "event"
    },
    {
      "anonymous": false,
      "inputs": [
        {
          "indexed": false,
          "internalType": "uint256",
          "name": "newListingFeePercentage",
          "type": "uint256"
        }
      ],
      "name": "ListingFeePercentageUpdated",
      "type": "event"
    },
    {
      "anonymous": false,
      "inputs": [
        {
          "indexed": false,
          "internalType": "uint256",
          "name": "_tokenId",
          "type": "uint256"
        }
      ],
      "name": "MetadataUpdate",
      "type": "event"
    },
    {
      "anonymous": false,
      "inputs": [
        {
          "indexed": true,
          "internalType": "uint256",
          "name": "tokenId",
          "type": "uint256"
        },
        {
          "indexed": true,
          "internalType": "address",
          "name": "seller",
          "type": "address"
        },
        {
          "indexed": false,
          "internalType": "uint256",
          "name": "price",
          "type": "uint256"
        }
      ],
      "name": "NftListed",
      "type": "event"
    },
    {
      "anonymous": false,
      "inputs": [
        {
          "indexed": true,
          "internalType": "uint256",
          "name": "tokenId",
          "type": "uint256"
        },
        {
          "indexed": true,
          "internalType": "address",
          "name": "buyer",
          "type": "address"
        },
        {
          "indexed": false,
          "internalType": "uint256",
          "name": "price",
          "type": "uint256"
        }
      ],
      "name": "NftPurchased",
      "type": "event"
    },
    {
      "anonymous": false,
      "inputs": [
        {
          "indexed": true,
          "internalType": "uint256",
          "name": "tokenId",
          "type": "uint256"
        },
        {
          "indexed": true,
          "internalType": "address",
          "name": "seller",
          "type": "address"
        }
      ],
      "name": "NftUnlisted",
      "type": "event"
    },
    {
      "anonymous": false,
      "inputs": [
        {
          "indexed": true,
          "internalType": "address",
          "name": "previousOwner",
          "type": "address"
        },
        {
          "indexed": true,
          "internalType": "address",
          "name": "newOwner",
          "type": "address"
        }
      ],
      "name": "OwnershipTransferred",
      "type": "event"
    },
    {
      "anonymous": false,
      "inputs": [
        {
          "indexed": true,
          "internalType": "address",
          "name": "sender",
          "type": "address"
        },
        {
          "indexed": false,
          "internalType": "uint256",
          "name": "amount",
          "type": "uint256"
        }
      ],
      "name": "PaymentReceived",
      "type": "event"
    },
    {
      "anonymous": false,
      "inputs": [
        {
          "indexed": true,
          "internalType": "uint256",
          "name": "tokenId",
          "type": "uint256"
        },
        {
          "indexed": true,
          "internalType": "address",
          "name": "receiver",
          "type": "address"
        },
        {
          "indexed": false,
          "internalType": "uint96",
          "name": "feeNumerator",
          "type": "uint96"
        }
      ],
      "name": "RoyaltySet",
      "type": "event"
    },
    {
      "anonymous": false,
      "inputs": [
        {
          "indexed": true,
          "internalType": "address",
          "name": "from",
          "type": "address"
        },
        {
          "indexed": true,
          "internalType": "address",
          "name": "to",
          "type": "address"
        },
        {
          "indexed": true,
          "internalType": "uint256",
          "name": "tokenId",
          "type": "uint256"
        }
      ],
      "name": "Transfer",
      "type": "event"
    },
    {
      "inputs": [],
      "name": "MAX_LISTING_FEE_PERCENTAGE",
      "outputs": [
        {
          "internalType": "uint256",
          "name": "",
          "type": "uint256"
        }
      ],
      "stateMutability": "view",
      "type": "function"
    },
    {
      "inputs": [
        {
          "internalType": "address",
          "name": "to",
          "type": "address"
        },
        {
          "internalType": "uint256",
          "name": "tokenId",
          "type": "uint256"
        }
      ],
      "name": "approve",
      "outputs": [],
      "stateMutability": "nonpayable",
      "type": "function"
    },
    {
      "inputs": [
        {
          "internalType": "address",
          "name": "owner",
          "type": "address"
        }
      ],
      "name": "balanceOf",
      "outputs": [
        {
          "internalType": "uint256",
          "name": "",
          "type": "uint256"
        }
      ],
      "stateMutability": "view",
      "type": "function"
    },
    {
      "inputs": [
        {
          "internalType": "bytes32[]",
          "name": "merkleProof",
          "type": "bytes32[]"
        },
        {
          "internalType": "uint256",
          "name": "tokenId",
          "type": "uint256"
        }
      ],
      "name": "claimNFT",
      "outputs": [],
      "stateMutability": "nonpayable",
      "type": "function"
    },
    {
      "inputs": [
        {
          "internalType": "uint256",
          "name": "tokenId",
          "type": "uint256"
        },
        {
          "internalType": "uint256",
          "name": "startingBid",
          "type": "uint256"
        },
        {
          "internalType": "uint256",
          "name": "duration",
          "type": "uint256"
        }
      ],
      "name": "createAuction",
      "outputs": [],
      "stateMutability": "nonpayable",
      "type": "function"
    },
    {
      "inputs": [
        {
          "internalType": "uint256",
          "name": "tokenId",
          "type": "uint256"
        }
      ],
      "name": "endAuction",
      "outputs": [],
      "stateMutability": "nonpayable",
      "type": "function"
    },
    {
      "inputs": [],
      "name": "getAllListedNfts",
      "outputs": [
        {
          "components": [
            {
              "internalType": "uint256",
              "name": "tokenId",
              "type": "uint256"
            },
            {
              "internalType": "uint256",
              "name": "price",
              "type": "uint256"
            },
            {
              "internalType": "address payable",
              "name": "seller",
              "type": "address"
            },
            {
              "internalType": "bool",
              "name": "isListed",
              "type": "bool"
            },
            {
              "internalType": "string",
              "name": "tokenUri",
              "type": "string"
            },
            {
              "internalType": "uint256",
              "name": "expirationTime",
              "type": "uint256"
            }
          ],
          "internalType": "struct YourCollectible.NftItem[]",
          "name": "",
          "type": "tuple[]"
        }
      ],
      "stateMutability": "view",
      "type": "function"
    },
    {
      "inputs": [
        {
          "internalType": "uint256",
          "name": "tokenId",
          "type": "uint256"
        }
      ],
      "name": "getApproved",
      "outputs": [
        {
          "internalType": "address",
          "name": "",
          "type": "address"
        }
      ],
      "stateMutability": "view",
      "type": "function"
    },
    {
      "inputs": [
        {
          "internalType": "uint256",
          "name": "tokenId",
          "type": "uint256"
        }
      ],
      "name": "getCurrentBid",
      "outputs": [
        {
          "internalType": "uint256",
          "name": "",
          "type": "uint256"
        }
      ],
      "stateMutability": "view",
      "type": "function"
    },
    {
      "inputs": [
        {
          "internalType": "uint256",
          "name": "tokenId",
          "type": "uint256"
        }
      ],
      "name": "getHighestBidder",
      "outputs": [
        {
          "internalType": "address",
          "name": "",
          "type": "address"
        }
      ],
      "stateMutability": "view",
      "type": "function"
    },
    {
      "inputs": [
        {
          "internalType": "uint256",
          "name": "tokenId",
          "type": "uint256"
        }
      ],
      "name": "getNftItem",
      "outputs": [
        {
          "components": [
            {
              "internalType": "uint256",
              "name": "tokenId",
              "type": "uint256"
            },
            {
              "internalType": "uint256",
              "name": "price",
              "type": "uint256"
            },
            {
              "internalType": "address payable",
              "name": "seller",
              "type": "address"
            },
            {
              "internalType": "bool",
              "name": "isListed",
              "type": "bool"
            },
            {
              "internalType": "string",
              "name": "tokenUri",
              "type": "string"
            },
            {
              "internalType": "uint256",
              "name": "expirationTime",
              "type": "uint256"
            }
          ],
          "internalType": "struct YourCollectible.NftItem",
          "name": "",
          "type": "tuple"
        }
      ],
      "stateMutability": "view",
      "type": "function"
    },
    {
      "inputs": [],
      "name": "getOngoingAuctions",
      "outputs": [
        {
          "components": [
            {
              "internalType": "uint256",
              "name": "tokenId",
              "type": "uint256"
            },
            {
              "internalType": "address payable",
              "name": "seller",
              "type": "address"
            },
            {
              "internalType": "uint256",
              "name": "startingBid",
              "type": "uint256"
            },
            {
              "internalType": "uint256",
              "name": "currentBid",
              "type": "uint256"
            },
            {
              "internalType": "address payable",
              "name": "highestBidder",
              "type": "address"
            },
            {
              "internalType": "uint256",
              "name": "endTime",
              "type": "uint256"
            },
            {
              "internalType": "bool",
              "name": "isActive",
              "type": "bool"
            }
          ],
          "internalType": "struct YourCollectible.Auction[]",
          "name": "",
          "type": "tuple[]"
        }
      ],
      "stateMutability": "view",
      "type": "function"
    },
    {
      "inputs": [
        {
          "internalType": "uint256",
          "name": "tokenId",
          "type": "uint256"
        }
      ],
      "name": "getTradeHistory",
      "outputs": [
        {
          "components": [
            {
              "internalType": "address",
              "name": "from",
              "type": "address"
            },
            {
              "internalType": "address",
              "name": "to",
              "type": "address"
            },
            {
              "internalType": "uint256",
              "name": "price",
              "type": "uint256"
            },
            {
              "internalType": "uint256",
              "name": "royalty",
              "type": "uint256"
            },
            {
              "internalType": "uint256",
              "name": "timestamp",
              "type": "uint256"
            }
          ],
          "internalType": "struct YourCollectible.TradeHistory[]",
          "name": "",
          "type": "tuple[]"
        }
      ],
      "stateMutability": "view",
      "type": "function"
    },
    {
      "inputs": [
        {
          "internalType": "address",
          "name": "",
          "type": "address"
        }
      ],
      "name": "hasClaimed",
      "outputs": [
        {
          "internalType": "bool",
          "name": "",
          "type": "bool"
        }
      ],
      "stateMutability": "view",
      "type": "function"
    },
    {
      "inputs": [
        {
          "internalType": "address",
          "name": "owner",
          "type": "address"
        },
        {
          "internalType": "address",
          "name": "operator",
          "type": "address"
        }
      ],
      "name": "isApprovedForAll",
      "outputs": [
        {
          "internalType": "bool",
          "name": "",
          "type": "bool"
        }
      ],
      "stateMutability": "view",
      "type": "function"
    },
    {
      "inputs": [],
      "name": "listingFeePercentage",
      "outputs": [
        {
          "internalType": "uint256",
          "name": "",
          "type": "uint256"
        }
      ],
      "stateMutability": "view",
      "type": "function"
    },
    {
      "inputs": [],
      "name": "merkleRoot",
      "outputs": [
        {
          "internalType": "bytes32",
          "name": "",
          "type": "bytes32"
        }
      ],
      "stateMutability": "view",
      "type": "function"
    },
    {
      "inputs": [
        {
          "internalType": "string[]",
          "name": "uris",
          "type": "string[]"
        },
        {
          "internalType": "uint256",
          "name": "quantity",
          "type": "uint256"
        }
      ],
      "name": "mintBatch",
      "outputs": [
        {
          "internalType": "uint256[]",
          "name": "",
          "type": "uint256[]"
        }
      ],
      "stateMutability": "nonpayable",
      "type": "function"
    },
    {
      "inputs": [
        {
          "internalType": "string[]",
          "name": "uris",
          "type": "string[]"
        },
        {
          "internalType": "uint256",
          "name": "quantity",
          "type": "uint256"
        }
      ],
      "name": "mintBatchForAirdrop",
      "outputs": [
        {
          "internalType": "uint256[]",
          "name": "",
          "type": "uint256[]"
        }
      ],
      "stateMutability": "nonpayable",
      "type": "function"
    },
    {
      "inputs": [
        {
          "internalType": "address",
          "name": "to",
          "type": "address"
        },
        {
          "internalType": "string",
          "name": "uri",
          "type": "string"
        },
        {
          "internalType": "uint96",
          "name": "feeNumerator",
          "type": "uint96"
        }
      ],
      "name": "mintItem",
      "outputs": [
        {
          "internalType": "uint256",
          "name": "",
          "type": "uint256"
        }
      ],
      "stateMutability": "nonpayable",
      "type": "function"
    },
    {
      "inputs": [],
      "name": "name",
      "outputs": [
        {
          "internalType": "string",
          "name": "",
          "type": "string"
        }
      ],
      "stateMutability": "view",
      "type": "function"
    },
    {
      "inputs": [],
      "name": "owner",
      "outputs": [
        {
          "internalType": "address",
          "name": "",
          "type": "address"
        }
      ],
      "stateMutability": "view",
      "type": "function"
    },
    {
      "inputs": [
        {
          "internalType": "uint256",
          "name": "tokenId",
          "type": "uint256"
        }
      ],
      "name": "ownerOf",
      "outputs": [
        {
          "internalType": "address",
          "name": "",
          "type": "address"
        }
      ],
      "stateMutability": "view",
      "type": "function"
    },
    {
      "inputs": [],
      "name": "pay",
      "outputs": [],
      "stateMutability": "payable",
      "type": "function"
    },
    {
      "inputs": [
        {
          "internalType": "uint256",
          "name": "tokenId",
          "type": "uint256"
        }
      ],
      "name": "placeBid",
      "outputs": [],
      "stateMutability": "payable",
      "type": "function"
    },
    {
      "inputs": [
        {
          "internalType": "uint256",
          "name": "tokenId",
          "type": "uint256"
        },
        {
          "internalType": "uint256",
          "name": "price",
          "type": "uint256"
        },
        {
          "internalType": "uint256",
          "name": "duration",
          "type": "uint256"
        }
      ],
      "name": "placeNftOnSale",
      "outputs": [],
      "stateMutability": "nonpayable",
      "type": "function"
    },
    {
      "inputs": [
        {
          "internalType": "uint256",
          "name": "tokenId",
          "type": "uint256"
        }
      ],
      "name": "purchaseNft",
      "outputs": [],
      "stateMutability": "payable",
      "type": "function"
    },
    {
      "inputs": [],
      "name": "renounceOwnership",
      "outputs": [],
      "stateMutability": "nonpayable",
      "type": "function"
    },
    {
      "inputs": [
        {
          "internalType": "uint256",
          "name": "tokenId",
          "type": "uint256"
        },
        {
          "internalType": "uint256",
          "name": "salePrice",
          "type": "uint256"
        }
      ],
      "name": "royaltyInfo",
      "outputs": [
        {
          "internalType": "address",
          "name": "",
          "type": "address"
        },
        {
          "internalType": "uint256",
          "name": "",
          "type": "uint256"
        }
      ],
      "stateMutability": "view",
      "type": "function"
    },
    {
      "inputs": [
        {
          "internalType": "address",
          "name": "from",
          "type": "address"
        },
        {
          "internalType": "address",
          "name": "to",
          "type": "address"
        },
        {
          "internalType": "uint256",
          "name": "tokenId",
          "type": "uint256"
        }
      ],
      "name": "safeTransferFrom",
      "outputs": [],
      "stateMutability": "nonpayable",
      "type": "function"
    },
    {
      "inputs": [
        {
          "internalType": "address",
          "name": "from",
          "type": "address"
        },
        {
          "internalType": "address",
          "name": "to",
          "type": "address"
        },
        {
          "internalType": "uint256",
          "name": "tokenId",
          "type": "uint256"
        },
        {
          "internalType": "bytes",
          "name": "data",
          "type": "bytes"
        }
      ],
      "name": "safeTransferFrom",
      "outputs": [],
      "stateMutability": "nonpayable",
      "type": "function"
    },
    {
      "inputs": [
        {
          "internalType": "address",
          "name": "operator",
          "type": "address"
        },
        {
          "internalType": "bool",
          "name": "approved",
          "type": "bool"
        }
      ],
      "name": "setApprovalForAll",
      "outputs": [],
      "stateMutability": "nonpayable",
      "type": "function"
    },
    {
      "inputs": [
        {
          "internalType": "bytes32",
          "name": "_merkleRoot",
          "type": "bytes32"
        }
      ],
      "name": "setMerkleRoot",
      "outputs": [],
      "stateMutability": "nonpayable",
      "type": "function"
    },
    {
      "inputs": [
        {
          "internalType": "bytes4",
          "name": "interfaceId",
          "type": "bytes4"
        }
      ],
      "name": "supportsInterface",
      "outputs": [
        {
          "internalType": "bool",
          "name": "",
          "type": "bool"
        }
      ],
      "stateMutability": "view",
      "type": "function"
    },
    {
      "inputs": [],
      "name": "symbol",
      "outputs": [
        {
          "internalType": "string",
          "name": "",
          "type": "string"
        }
      ],
      "stateMutability": "view",
      "type": "function"
    },
    {
      "inputs": [
        {
          "internalType": "uint256",
          "name": "index",
          "type": "uint256"
        }
      ],
      "name": "tokenByIndex",
      "outputs": [
        {
          "internalType": "uint256",
          "name": "",
          "type": "uint256"
        }
      ],
      "stateMutability": "view",
      "type": "function"
    },
    {
      "inputs": [],
      "name": "tokenIdCounter",
      "outputs": [
        {
          "internalType": "uint256",
          "name": "_value",
          "type": "uint256"
        }
      ],
      "stateMutability": "view",
      "type": "function"
    },
    {
      "inputs": [
        {
          "internalType": "address",
          "name": "owner",
          "type": "address"
        },
        {
          "internalType": "uint256",
          "name": "index",
          "type": "uint256"
        }
      ],
      "name": "tokenOfOwnerByIndex",
      "outputs": [
        {
          "internalType": "uint256",
          "name": "",
          "type": "uint256"
        }
      ],
      "stateMutability": "view",
      "type": "function"
    },
    {
      "inputs": [
        {
          "internalType": "uint256",
          "name": "tokenId",
          "type": "uint256"
        }
      ],
      "name": "tokenURI",
      "outputs": [
        {
          "internalType": "string",
          "name": "",
          "type": "string"
        }
      ],
      "stateMutability": "view",
      "type": "function"
    },
    {
      "inputs": [],
      "name": "totalFeesCollected",
      "outputs": [
        {
          "internalType": "uint256",
          "name": "",
          "type": "uint256"
        }
      ],
      "stateMutability": "view",
      "type": "function"
    },
    {
      "inputs": [],
      "name": "totalSupply",
      "outputs": [
        {
          "internalType": "uint256",
          "name": "",
          "type": "uint256"
        }
      ],
      "stateMutability": "view",
      "type": "function"
    },
    {
      "inputs": [
        {
          "internalType": "address",
          "name": "from",
          "type": "address"
        },
        {
          "internalType": "address",
          "name": "to",
          "type": "address"
        },
        {
          "internalType": "uint256",
          "name": "tokenId",
          "type": "uint256"
        }
      ],
      "name": "transferFrom",
      "outputs": [],
      "stateMutability": "nonpayable",
      "type": "function"
    },
    {
      "inputs": [
        {
          "internalType": "address",
          "name": "newOwner",
          "type": "address"
        }
      ],
      "name": "transferOwnership",
      "outputs": [],
      "stateMutability": "nonpayable",
      "type": "function"
    },
    {
      "inputs": [
        {
          "internalType": "uint256",
          "name": "tokenId",
          "type": "uint256"
        }
      ],
      "name": "unlistNft",
      "outputs": [],
      "stateMutability": "nonpayable",
      "type": "function"
    },
    {
      "inputs": [
        {
          "internalType": "uint256",
          "name": "newListingFeePercentage",
          "type": "uint256"
        }
      ],
      "name": "updateListingFeePercentage",
      "outputs": [],
      "stateMutability": "nonpayable",
      "type": "function"
    },
    {
      "inputs": [],
      "name": "withdrawFees",
      "outputs": [],
      "stateMutability": "nonpayable",
      "type": "function"
    }
  ],
  "transactionHash": "0x75bcd0adebf17b22cfd1b9b92bbd71192009bcabf50870a3334324a70ea9d0bb",
  "args": [],
  "numDeployments": 1,
  "solcInputHash": "2e0095c161ac325074e7c16a5b074f59",
  "bytecode": "0x608060405260fa6017553480156200001657600080fd5b506040518060400160405280600f81526020016e596f7572436f6c6c65637469626c6560881b8152506040518060400160405280600381526020016205a4a560ec1b81525081600290816200006c91906200019e565b5060036200007b82826200019e565b5050506200009862000092620000a360201b60201c565b620000a7565b6001600e556200026a565b3390565b600d80546001600160a01b038381166001600160a01b0319831681179093556040519116919082907f8be0079c531659141344cd1fd0a4f28419497f9722a3daafe3b4186f6b6457e090600090a35050565b634e487b7160e01b600052604160045260246000fd5b600181811c908216806200012457607f821691505b6020821081036200014557634e487b7160e01b600052602260045260246000fd5b50919050565b601f8211156200019957600081815260208120601f850160051c81016020861015620001745750805b601f850160051c820191505b81811015620001955782815560010162000180565b5050505b505050565b81516001600160401b03811115620001ba57620001ba620000f9565b620001d281620001cb84546200010f565b846200014b565b602080601f8311600181146200020a5760008415620001f15750858301515b600019600386901b1c1916600185901b17855562000195565b600085815260208120601f198616915b828110156200023b578886015182559484019460019091019084016200021a565b50858210156200025a5787850151600019600388901b60f8161c191681555b5050505050600190811b01905550565b6146f1806200027a6000396000f3fe60806040526004361061027d5760003560e01c806385df1c6b1161014f578063a2e66bfc116100c1578063ca97b04d1161007a578063ca97b04d146107ad578063cda4beef146107cd578063da4e364f146107ed578063deb82ed91461081d578063e985e9c514610833578063f2fde38b1461087c57600080fd5b8063a2e66bfc146106e1578063b88d4fde146106f4578063b9a2de3a14610714578063bfd3e4ba14610734578063c750cb7914610754578063c87b56dd1461078d57600080fd5b806395d89b411161011357806395d89b411461064057806398bdf6f5146106555780639979ef451461066c5780639d024a7f1461067f5780639e75689c146106a1578063a22cb465146106c157600080fd5b806385df1c6b14610586578063873c5e60146105b35780638ca3fcfc146105e05780638da5cb5b1461060057806395ce4a3b1461061e57600080fd5b80632f745c59116101f35780636352211e116101ac5780636352211e146104b45780636f1a0af5146104d457806370a0823114610501578063715018a61461052157806373b2e80e146105365780637cb647591461056657600080fd5b80632f745c59146104095780633877248d1461042957806342842e0e14610449578063476343ee146104695780634f6ccce71461047e57806360c6d8ae1461049e57600080fd5b8063095ea7b311610245578063095ea7b31461035757806318160ddd146103775780631b9265b81461038c57806323b872dd146103945780632a55205a146103b45780632eb4a7ab146103f357600080fd5b806301bb8cc51461028257806301ffc9a7146102a457806306fdde03146102d9578063081812fc146102fb5780630888de3914610333575b600080fd5b34801561028e57600080fd5b506102a261029d366004613bce565b61089c565b005b3480156102b057600080fd5b506102c46102bf366004613bfd565b610936565b60405190151581526020015b60405180910390f35b3480156102e557600080fd5b506102ee610947565b6040516102d09190613c6a565b34801561030757600080fd5b5061031b610316366004613bce565b6109d9565b6040516001600160a01b0390911681526020016102d0565b34801561033f57600080fd5b5061034960175481565b6040519081526020016102d0565b34801561036357600080fd5b506102a2610372366004613c99565b610a00565b34801561038357600080fd5b50600a54610349565b6102a2610b15565b3480156103a057600080fd5b506102a26103af366004613cc3565b610b4c565b3480156103c057600080fd5b506103d46103cf366004613cff565b610b7d565b604080516001600160a01b0390931683526020830191909152016102d0565b3480156103ff57600080fd5b5061034960195481565b34801561041557600080fd5b50610349610424366004613c99565b610c29565b34801561043557600080fd5b50610349610444366004613de0565b610cbf565b34801561045557600080fd5b506102a2610464366004613cc3565b610e36565b34801561047557600080fd5b506102a2610e51565b34801561048a57600080fd5b50610349610499366004613bce565b610ef8565b3480156104aa57600080fd5b5061034960105481565b3480156104c057600080fd5b5061031b6104cf366004613bce565b610f8b565b3480156104e057600080fd5b506104f46104ef366004613bce565b610feb565b6040516102d09190613ea9565b34801561050d57600080fd5b5061034961051c366004613ebc565b6110f0565b34801561052d57600080fd5b506102a2611176565b34801561054257600080fd5b506102c4610551366004613ebc565b601a6020526000908152604090205460ff1681565b34801561057257600080fd5b506102a2610581366004613bce565b61118a565b34801561059257600080fd5b506105a66105a1366004613ed7565b611197565b6040516102d09190613fa0565b3480156105bf57600080fd5b506105d36105ce366004613bce565b6113fa565b6040516102d09190613fe4565b3480156105ec57600080fd5b506102a26105fb36600461405e565b6114a6565b34801561060c57600080fd5b50600d546001600160a01b031661031b565b34801561062a57600080fd5b50610633611612565b6040516102d091906140d9565b34801561064c57600080fd5b506102ee61180c565b34801561066157600080fd5b50600f546103499081565b6102a261067a366004613bce565b61181b565b34801561068b57600080fd5b506106946119c9565b6040516102d0919061413b565b3480156106ad57600080fd5b506102a26106bc366004613bce565b611bf9565b3480156106cd57600080fd5b506102a26106dc3660046141c0565b611d11565b6102a26106ef366004613bce565b611d20565b34801561070057600080fd5b506102a261070f3660046141fc565b612090565b34801561072057600080fd5b506102a261072f366004613bce565b6120c2565b34801561074057600080fd5b506102a261074f366004614278565b6122a4565b34801561076057600080fd5b5061031b61076f366004613bce565b6000908152601260205260409020600401546001600160a01b031690565b34801561079957600080fd5b506102ee6107a8366004613bce565b6124a2565b3480156107b957600080fd5b506105a66107c8366004613ed7565b6124ad565b3480156107d957600080fd5b506102a26107e8366004614278565b6126fa565b3480156107f957600080fd5b50610349610808366004613bce565b60009081526012602052604090206003015490565b34801561082957600080fd5b506103496103e881565b34801561083f57600080fd5b506102c461084e3660046142a4565b6001600160a01b03918216600090815260076020908152604080832093909416825291909152205460ff1690565b34801561088857600080fd5b506102a2610897366004613ebc565b6129a5565b6108a4612a1b565b6103e88111156108fb5760405162461bcd60e51b815260206004820152601760248201527f4c697374696e672066656520697320746f6f206869676800000000000000000060448201526064015b60405180910390fd5b60178190556040518181527f7b7b531d40c1aa89dac7360f225e5660c63799638af64655583d3ec191be11e29060200160405180910390a150565b600061094182612a75565b92915050565b606060028054610956906142d7565b80601f0160208091040260200160405190810160405280929190818152602001828054610982906142d7565b80156109cf5780601f106109a4576101008083540402835291602001916109cf565b820191906000526020600020905b8154815290600101906020018083116109b257829003601f168201915b5050505050905090565b60006109e482612a80565b506000908152600660205260409020546001600160a01b031690565b6000610a0b82610f8b565b9050806001600160a01b0316836001600160a01b031603610a785760405162461bcd60e51b815260206004820152602160248201527f4552433732313a20617070726f76616c20746f2063757272656e74206f776e656044820152603960f91b60648201526084016108f2565b336001600160a01b0382161480610a945750610a94813361084e565b610b065760405162461bcd60e51b815260206004820152603d60248201527f4552433732313a20617070726f76652063616c6c6572206973206e6f7420746f60448201527f6b656e206f776e6572206f7220617070726f76656420666f7220616c6c00000060648201526084016108f2565b610b108383612adf565b505050565b60405134815233907f6ef95f06320e7a25a04a175ca677b7052bdd97131872c2192525a629f51be7709060200160405180910390a2565b610b563382612b4d565b610b725760405162461bcd60e51b81526004016108f290614311565b610b10838383612bcc565b60008281526001602090815260408083208151808301909252546001600160a01b038116808352600160a01b9091046001600160601b0316928201929092528291610bf25750604080518082019091526000546001600160a01b0381168252600160a01b90046001600160601b031660208201525b602081015160009061271090610c11906001600160601b031687614374565b610c1b919061438b565b915196919550909350505050565b6000610c34836110f0565b8210610c965760405162461bcd60e51b815260206004820152602b60248201527f455243373231456e756d657261626c653a206f776e657220696e646578206f7560448201526a74206f6620626f756e647360a81b60648201526084016108f2565b506001600160a01b03919091166000908152600860209081526040808320938352929052205490565b6000610ccf600f80546001019055565b6000610cda600f5490565b9050610ce68582612d3d565b610cf08185612d57565b610cfb813385612e22565b6040516001600160601b0384168152339082907f93c3d3c02f3e5b8ff28a98e2ff5dc3d9395f4f02af3a830c3789c8af254202539060200160405180910390a36000610d45612f30565b85604051602001610d579291906143ad565b60408051601f1981840301815260c08301825284835260006020848101828152858501838152606087018481526080880186815260a089018690528a86526011909452959093208651815590516001820155915160028301805495511515600160a01b026001600160a81b03199096166001600160a01b0392909216919091179490941790935591519093506003820190610df2908261442a565b5060a0919091015160049091015560405160009083907f53f405bfea4b68c2f9cbb58bece507b3a7621257eb0c9735ee0626574e5b1488908390a350949350505050565b610b1083838360405180602001604052806000815250612090565b610e59612a1b565b601080546000909155600d546001600160a01b03166001600160a01b03166108fc829081150290604051600060405180830381858888f19350505050158015610ea6573d6000803e3d6000fd5b50600d546001600160a01b03166001600160a01b03167fc0819c13be868895eb93e40eaceb96de976442fa1d404e5c55f14bb65a8c489a82604051610eed91815260200190565b60405180910390a250565b6000610f03600a5490565b8210610f665760405162461bcd60e51b815260206004820152602c60248201527f455243373231456e756d657261626c653a20676c6f62616c20696e646578206f60448201526b7574206f6620626f756e647360a01b60648201526084016108f2565b600a8281548110610f7957610f796144ea565b90600052602060002001549050919050565b6000818152600460205260408120546001600160a01b0316806109415760405162461bcd60e51b8152602060048201526018602482015277115490cdcc8c4e881a5b9d985b1a59081d1bdad95b88125160421b60448201526064016108f2565b610ff3613b8d565b600082815260116020908152604091829020825160c0810184528154815260018201549281019290925260028101546001600160a01b03811693830193909352600160a01b90920460ff161515606082015260038201805491929160808401919061105d906142d7565b80601f0160208091040260200160405190810160405280929190818152602001828054611089906142d7565b80156110d65780601f106110ab576101008083540402835291602001916110d6565b820191906000526020600020905b8154815290600101906020018083116110b957829003601f168201915b505050505081526020016004820154815250509050919050565b60006001600160a01b03821661115a5760405162461bcd60e51b815260206004820152602960248201527f4552433732313a2061646472657373207a65726f206973206e6f7420612076616044820152683634b21037bbb732b960b91b60648201526084016108f2565b506001600160a01b031660009081526005602052604090205490565b61117e612a1b565b6111886000612f50565b565b611192612a1b565b601955565b6060818351146111b95760405162461bcd60e51b81526004016108f290614500565b600082116112095760405162461bcd60e51b815260206004820152601f60248201527f5175616e74697479206d7573742062652067726561746572207468616e20300060448201526064016108f2565b601482111561125a5760405162461bcd60e51b815260206004820152601d60248201527f4578636565646564206d61782062617463682073697a65206f6620323000000060448201526064016108f2565b60008267ffffffffffffffff81111561127557611275613d21565b60405190808252806020026020018201604052801561129e578160200160208202803683370190505b50905060005b838110156113f2576112ba600f80546001019055565b60006112c5600f5490565b90506112d13082612fa2565b6112f4818784815181106112e7576112e76144ea565b6020026020010151612d57565b6040518060c001604052808281526020016000815260200160006001600160a01b03168152602001600015158152602001878481518110611337576113376144ea565b6020908102919091018101518252600091810182905283825260118152604091829020835181559083015160018201559082015160028201805460608501511515600160a01b026001600160a81b03199091166001600160a01b0390931692909217919091179055608082015160038201906113b3908261442a565b5060a08201518160040155905050808383815181106113d4576113d46144ea565b602090810291909101015250806113ea81614544565b9150506112a4565b509392505050565b606060186000838152602001908152602001600020805480602002602001604051908101604052809291908181526020016000905b8282101561149b5760008481526020908190206040805160a0810182526005860290920180546001600160a01b0390811684526001808301549091168486015260028201549284019290925260038101546060840152600401546080830152908352909201910161142f565b505050509050919050565b336000908152601a602052604090205460ff16156115145760405162461bcd60e51b815260206004820152602560248201527f596f75206861766520616c726561647920636c61696d656420796f757220616960448201526407264726f760dc1b60648201526084016108f2565b6040516bffffffffffffffffffffffff193360601b1660208201526034810182905260009060540160405160208183030381529060405280519060200120905061159584848080602002602001604051908101604052809392919081815260200183836020028082843760009201919091525050601954915084905061313b565b6115d85760405162461bcd60e51b815260206004820152601460248201527324b73b30b634b21026b2b935b63290383937b7b360611b60448201526064016108f2565b336000818152601a60209081526040808320805460ff191660011790558051918201905290815261160c9130918590613151565b50505050565b60155460609060008167ffffffffffffffff81111561163357611633613d21565b60405190808252806020026020018201604052801561166c57816020015b611659613b8d565b8152602001906001900390816116515790505b5090506000805b8381101561180357600060158281548110611690576116906144ea565b60009182526020808320909101548083526011909152604090912060028101549192509060ff600160a01b9091041680156116db5750600481015415806116db575080600401544211155b156117ee576040805160c081018252825481526001830154602082015260028301546001600160a01b03811692820192909252600160a01b90910460ff161515606082015260038201805483916080840191611736906142d7565b80601f0160208091040260200160405190810160405280929190818152602001828054611762906142d7565b80156117af5780601f10611784576101008083540402835291602001916117af565b820191906000526020600020905b81548152906001019060200180831161179257829003601f168201915b505050505081526020016004820154815250508585815181106117d4576117d46144ea565b602002602001018190525083806117ea90614544565b9450505b505080806117fb90614544565b915050611673565b50815292915050565b606060038054610956906142d7565b6000818152601260205260409020600681015460ff166118755760405162461bcd60e51b815260206004820152601560248201527441756374696f6e206973206e6f742061637469766560581b60448201526064016108f2565b806005015442106118bc5760405162461bcd60e51b8152602060048201526011602482015270105d58dd1a5bdb881a185cc8195b991959607a1b60448201526064016108f2565b8060030154341161191b5760405162461bcd60e51b815260206004820152602360248201527f426964206d75737420626520686967686572207468616e2063757272656e7420604482015262189a5960ea1b60648201526084016108f2565b60048101546001600160a01b03161561197057600481015460038201546040516001600160a01b039092169181156108fc0291906000818181858888f1935050505015801561196e573d6000803e3d6000fd5b505b34600382018190556004820180546001600160a01b031916339081179091556040519182529083907f0e54eff26401bf69b81b26f60bd85ef47f5d85275c1d268d84f68d6897431c479060200160405180910390a35050565b60606000805b601354811015611a4c576000601382815481106119ee576119ee6144ea565b60009182526020808320909101548083526012909152604090912060068101549192509060ff168015611a245750806005015442105b15611a375783611a3381614544565b9450505b50508080611a4490614544565b9150506119cf565b5060008167ffffffffffffffff811115611a6857611a68613d21565b604051908082528060200260200182016040528015611aed57816020015b611ada6040518060e001604052806000815260200160006001600160a01b03168152602001600081526020016000815260200160006001600160a01b03168152602001600081526020016000151581525090565b815260200190600190039081611a865790505b5090506000805b601354811015611bf057600060138281548110611b1357611b136144ea565b60009182526020808320909101548083526012909152604090912060068101549192509060ff168015611b495750806005015442105b15611bdb576040805160e0810182528254815260018301546001600160a01b0390811660208301526002840154928201929092526003830154606082015260048301549091166080820152600582015460a0820152600682015460ff16151560c08201528551869086908110611bc157611bc16144ea565b60200260200101819052508380611bd790614544565b9450505b50508080611be890614544565b915050611af4565b50909392505050565b33611c0382610f8b565b6001600160a01b031614611c635760405162461bcd60e51b815260206004820152602160248201527f4f6e6c7920746865206f776e65722063616e20756e6c69737420746865204e466044820152601560fa1b60648201526084016108f2565b600081815260116020526040902060020154600160a01b900460ff16611cbf5760405162461bcd60e51b8152602060048201526011602482015270139195081a5cc81b9bdd081b1a5cdd1959607a1b60448201526064016108f2565b611cc881613184565b600081815260116020526040808220600201805460ff60a01b1916905551339183917f53f405bfea4b68c2f9cbb58bece507b3a7621257eb0c9735ee0626574e5b14889190a350565b611d1c338383613265565b5050565b611d28613333565b60008181526011602052604090206002810154600160a01b900460ff16611d915760405162461bcd60e51b815260206004820152601a60248201527f4e4654206973206e6f74206c697374656420666f722073616c6500000000000060448201526064016108f2565b8060010154341015611ddc5760405162461bcd60e51b8152602060048201526014602482015273125b9cdd59999a58da595b9d081c185e5b595b9d60621b60448201526064016108f2565b6002810154600160a01b900460ff16611e375760405162461bcd60e51b815260206004820152601a60248201527f4e4654206973206e6f74206c697374656420666f722073616c6500000000000060448201526064016108f2565b600481015415801590611e4d5750806004015442115b15611eb257611e5b82613184565b60028101805460ff60a01b1916905560405162461bcd60e51b815260206004820152601760248201527f4e4654206c697374696e6720686173206578706972656400000000000000000060448201526064016108f2565b60028101546001600160a01b0316611ec983613184565b60028201805460ff60a01b19169055600080611ee58534610b7d565b91509150600061271060175434611efc9190614374565b611f06919061438b565b90508060106000828254611f1a919061455d565b90915550506001600160a01b0384166108fc83611f378434614570565b611f419190614570565b6040518115909202916000818181858888f19350505050158015611f69573d6000803e3d6000fd5b506040516001600160a01b0384169083156108fc029084906000818181858888f19350505050158015611fa0573d6000803e3d6000fd5b50611fac843388612bcc565b6000868152601860209081526040808320815160a0810183526001600160a01b0389811682523382860181815234848701818152606086018c81524260808801908152885460018082018b55998d529b8b902097516005909c0290970180549b87166001600160a01b03199c8d16178155935197840180549890961697909a169690961790935593516002850155955160038401559051600490920191909155905190815288917fd1861454b25e248ff1d0dcdafe053c022db01d05d6aa9fd5ab4449bc951fce4d910160405180910390a3505050505061208d6001600e55565b50565b61209a3383612b4d565b6120b65760405162461bcd60e51b81526004016108f290614311565b61160c84848484613151565b6120ca613333565b6000818152601260205260409020600681015460ff1661212c5760405162461bcd60e51b815260206004820152601960248201527f41756374696f6e2068617320616c726561647920656e6465640000000000000060448201526064016108f2565b60068101805460ff1916905560048101546001600160a01b031615612260576001810154600482015461216c916001600160a01b03908116911684612bcc565b600381015460018201546040516000916001600160a01b03169083908381818185875af1925050503d80600081146121c0576040519150601f19603f3d011682016040523d82523d6000602084013e6121c5565b606091505b505090508061220e5760405162461bcd60e51b815260206004820152601560248201527414d95b1b195c881c185e5b595b9d0819985a5b1959605a1b60448201526064016108f2565b600483015460038401546040519081526001600160a01b039091169085907fd2aa34a4fdbbc6dff6a3e56f46e0f3ae2a31d7785ff3487aa5c95c642acea5019060200160405180910390a35050612299565b60405160008082529083907fd2aa34a4fdbbc6dff6a3e56f46e0f3ae2a31d7785ff3487aa5c95c642acea5019060200160405180910390a35b5061208d6001600e55565b336122ae84610f8b565b6001600160a01b0316146123045760405162461bcd60e51b815260206004820152601f60248201527f4f6e6c7920746865206f776e65722063616e206c69737420746865204e46540060448201526064016108f2565b600083815260116020526040902060020154600160a01b900460ff16156123655760405162461bcd60e51b8152602060048201526015602482015274139195081a5cc8185b1c9958591e481b1a5cdd1959605a1b60448201526064016108f2565b600082116123b55760405162461bcd60e51b815260206004820152601f60248201527f5072696365206d7573742062652067726561746572207468616e207a65726f0060448201526064016108f2565b600081156123cc576123c7824261455d565b6123cf565b60005b6000858152601160205260408120600180820187905560028201805460ff60a01b1933166001600160a81b031990911617600160a01b1790556004909101839055601580548083018255928190527f55f448fdea98c4d29eb340757ef0a66cd03dbb9538908a6a81d96026b71ec475909201879055905491925061245291614570565b6000858152601660209081526040918290209290925551848152339186917f6decc0edd62bc66dd462d841e96d5888ee2452307a8352b9bd66e442d6a23ee091015b60405180910390a350505050565b60606109418261338c565b6060818351146124cf5760405162461bcd60e51b81526004016108f290614500565b6000821161251f5760405162461bcd60e51b815260206004820152601f60248201527f5175616e74697479206d7573742062652067726561746572207468616e20300060448201526064016108f2565b60148211156125705760405162461bcd60e51b815260206004820152601d60248201527f4578636565646564206d61782062617463682073697a65206f6620323000000060448201526064016108f2565b60008267ffffffffffffffff81111561258b5761258b613d21565b6040519080825280602002602001820160405280156125b4578160200160208202803683370190505b50905060005b838110156113f2576125d0600f80546001019055565b60006125db600f5490565b90506125e73382612fa2565b6125fd818784815181106112e7576112e76144ea565b6040518060c0016040528082815260200160008152602001336001600160a01b0316815260200160001515815260200187848151811061263f5761263f6144ea565b6020908102919091018101518252600091810182905283825260118152604091829020835181559083015160018201559082015160028201805460608501511515600160a01b026001600160a81b03199091166001600160a01b0390931692909217919091179055608082015160038201906126bb908261442a565b5060a08201518160040155905050808383815181106126dc576126dc6144ea565b602090810291909101015250806126f281614544565b9150506125ba565b3361270484610f8b565b6001600160a01b0316146127665760405162461bcd60e51b8152602060048201526024808201527f4f6e6c7920746865206f776e65722063616e2063726561746520616e206175636044820152633a34b7b760e11b60648201526084016108f2565b60008381526012602052604090206006015460ff16156127c85760405162461bcd60e51b815260206004820152601960248201527f41756374696f6e20697320616c7265616479206163746976650000000000000060448201526064016108f2565b600082116128275760405162461bcd60e51b815260206004820152602660248201527f5374617274696e6720626964206d7573742062652067726561746572207468616044820152656e207a65726f60d01b60648201526084016108f2565b6000612833824261455d565b90506040518060e00160405280858152602001336001600160a01b031681526020018481526020016000815260200160006001600160a01b0316815260200182815260200160011515815250601260008681526020019081526020016000206000820151816000015560208201518160010160006101000a8154816001600160a01b0302191690836001600160a01b03160217905550604082015181600201556060820151816003015560808201518160040160006101000a8154816001600160a01b0302191690836001600160a01b0316021790555060a0820151816005015560c08201518160060160006101000a81548160ff0219169083151502179055509050506013849080600181540180825580915050600190039060005260206000200160009091909190915055336001600160a01b0316847fc9050d42180a61cb0d9ebb8ad118b62fe6eab12cf12ff752c4a0cc7da9ddf6278584604051612494929190918252602082015260400190565b6129ad612a1b565b6001600160a01b038116612a125760405162461bcd60e51b815260206004820152602660248201527f4f776e61626c653a206e6577206f776e657220697320746865207a65726f206160448201526564647265737360d01b60648201526084016108f2565b61208d81612f50565b600d546001600160a01b031633146111885760405162461bcd60e51b815260206004820181905260248201527f4f776e61626c653a2063616c6c6572206973206e6f7420746865206f776e657260448201526064016108f2565b600061094182613487565b6000818152600460205260409020546001600160a01b031661208d5760405162461bcd60e51b8152602060048201526018602482015277115490cdcc8c4e881a5b9d985b1a59081d1bdad95b88125160421b60448201526064016108f2565b600081815260066020526040902080546001600160a01b0319166001600160a01b0384169081179091558190612b1482610f8b565b6001600160a01b03167f8c5be1e5ebec7d5bd14f71427d1e84f3dd0314c0f7b2291e5b200ac8c7c3b92560405160405180910390a45050565b600080612b5983610f8b565b9050806001600160a01b0316846001600160a01b03161480612ba057506001600160a01b0380821660009081526007602090815260408083209388168352929052205460ff165b80612bc45750836001600160a01b0316612bb9846109d9565b6001600160a01b0316145b949350505050565b826001600160a01b0316612bdf82610f8b565b6001600160a01b031614612c055760405162461bcd60e51b81526004016108f290614583565b6001600160a01b038216612c675760405162461bcd60e51b8152602060048201526024808201527f4552433732313a207472616e7366657220746f20746865207a65726f206164646044820152637265737360e01b60648201526084016108f2565b612c7483838360016134ac565b826001600160a01b0316612c8782610f8b565b6001600160a01b031614612cad5760405162461bcd60e51b81526004016108f290614583565b600081815260066020908152604080832080546001600160a01b03199081169091556001600160a01b0387811680865260058552838620805460001901905590871680865283862080546001019055868652600490945282852080549092168417909155905184937fddf252ad1be2c89b69c2b068fc378daa952ba7f163c4a11628f55a4df523b3ef91a4505050565b611d1c8282604051806020016040528060008152506134b8565b6000828152600460205260409020546001600160a01b0316612dd25760405162461bcd60e51b815260206004820152602e60248201527f45524337323155524953746f726167653a2055524920736574206f66206e6f6e60448201526d32bc34b9ba32b73a103a37b5b2b760911b60648201526084016108f2565b6000828152600c60205260409020612dea828261442a565b506040518281527ff8e1a15aba9398e019f0b49df1a4fde98ee17ae345cb5f6b5e2c27f5033e8ce79060200160405180910390a15050565b6127106001600160601b0382161115612e905760405162461bcd60e51b815260206004820152602a60248201527f455243323938313a20726f79616c7479206665652077696c6c206578636565646044820152692073616c65507269636560b01b60648201526084016108f2565b6001600160a01b038216612ee65760405162461bcd60e51b815260206004820152601b60248201527f455243323938313a20496e76616c696420706172616d6574657273000000000060448201526064016108f2565b6040805180820182526001600160a01b0393841681526001600160601b0392831660208083019182526000968752600190529190942093519051909116600160a01b029116179055565b606060405180606001604052806031815260200161468b60319139905090565b600d80546001600160a01b038381166001600160a01b0319831681179093556040519116919082907f8be0079c531659141344cd1fd0a4f28419497f9722a3daafe3b4186f6b6457e090600090a35050565b6001600160a01b038216612ff85760405162461bcd60e51b815260206004820181905260248201527f4552433732313a206d696e7420746f20746865207a65726f206164647265737360448201526064016108f2565b6000818152600460205260409020546001600160a01b03161561305d5760405162461bcd60e51b815260206004820152601c60248201527f4552433732313a20746f6b656e20616c7265616479206d696e7465640000000060448201526064016108f2565b61306b6000838360016134ac565b6000818152600460205260409020546001600160a01b0316156130d05760405162461bcd60e51b815260206004820152601c60248201527f4552433732313a20746f6b656e20616c7265616479206d696e7465640000000060448201526064016108f2565b6001600160a01b038216600081815260056020908152604080832080546001019055848352600490915280822080546001600160a01b0319168417905551839291907fddf252ad1be2c89b69c2b068fc378daa952ba7f163c4a11628f55a4df523b3ef908290a45050565b60008261314885846134eb565b14949350505050565b61315c848484612bcc565b61316884848484613530565b61160c5760405162461bcd60e51b81526004016108f2906145c8565b6015546131c65760405162461bcd60e51b815260206004820152601060248201526f139bc81d1bdad95b9cc81b1a5cdd195960821b60448201526064016108f2565b600081815260166020526040812054601580549192916131e890600190614570565b815481106131f8576131f86144ea565b906000526020600020015490508060158381548110613219576132196144ea565b6000918252602080832090910192909255828152601690915260409020829055601580548061324a5761324a61461a565b60019003818190600052602060002001600090559055505050565b816001600160a01b0316836001600160a01b0316036132c65760405162461bcd60e51b815260206004820152601960248201527f4552433732313a20617070726f766520746f2063616c6c65720000000000000060448201526064016108f2565b6001600160a01b03838116600081815260076020908152604080832094871680845294825291829020805460ff191686151590811790915591519182527f17307eab39ab6107e8899845ad3d59bd9653f200f220920489ca2b5937696c31910160405180910390a3505050565b6002600e54036133855760405162461bcd60e51b815260206004820152601f60248201527f5265656e7472616e637947756172643a207265656e7472616e742063616c6c0060448201526064016108f2565b6002600e55565b606061339782612a80565b6000828152600c6020526040812080546133b0906142d7565b80601f01602080910402602001604051908101604052809291908181526020018280546133dc906142d7565b80156134295780601f106133fe57610100808354040283529160200191613429565b820191906000526020600020905b81548152906001019060200180831161340c57829003601f168201915b50505050509050600061343a612f30565b9050805160000361344c575092915050565b81511561347e5780826040516020016134669291906143ad565b60405160208183030381529060405292505050919050565b612bc484613631565b60006001600160e01b03198216632483248360e11b1480610941575061094182613698565b61160c848484846136bd565b6134c28383612fa2565b6134cf6000848484613530565b610b105760405162461bcd60e51b81526004016108f2906145c8565b600081815b84518110156113f25761351c8286838151811061350f5761350f6144ea565b60200260200101516137f1565b91508061352881614544565b9150506134f0565b60006001600160a01b0384163b1561362657604051630a85bd0160e11b81526001600160a01b0385169063150b7a0290613574903390899088908890600401614630565b6020604051808303816000875af19250505080156135af575060408051601f3d908101601f191682019092526135ac9181019061466d565b60015b61360c573d8080156135dd576040519150601f19603f3d011682016040523d82523d6000602084013e6135e2565b606091505b5080516000036136045760405162461bcd60e51b81526004016108f2906145c8565b805181602001fd5b6001600160e01b031916630a85bd0160e11b149050612bc4565b506001949350505050565b606061363c82612a80565b6000613646612f30565b905060008151116136665760405180602001604052806000815250613691565b806136708461381d565b6040516020016136819291906143ad565b6040516020818303038152906040525b9392505050565b60006001600160e01b0319821663780e9d6360e01b14806109415750610941826138b0565b600181111561372c5760405162461bcd60e51b815260206004820152603560248201527f455243373231456e756d657261626c653a20636f6e7365637574697665207472604482015274185b9cd9995c9cc81b9bdd081cdd5c1c1bdc9d1959605a1b60648201526084016108f2565b816001600160a01b0385166137885761378381600a80546000838152600b60205260408120829055600182018355919091527fc65a7bb8d6351c1cf70c95a316cc6a92839c986682d98bc35f958f4883f9d2a80155565b6137ab565b836001600160a01b0316856001600160a01b0316146137ab576137ab85826138f0565b6001600160a01b0384166137c7576137c28161398d565b6137ea565b846001600160a01b0316846001600160a01b0316146137ea576137ea8482613a3c565b5050505050565b600081831061380d576000828152602084905260409020613691565b5060009182526020526040902090565b6060600061382a83613a80565b600101905060008167ffffffffffffffff81111561384a5761384a613d21565b6040519080825280601f01601f191660200182016040528015613874576020820181803683370190505b5090508181016020015b600019016f181899199a1a9b1b9c1cb0b131b232b360811b600a86061a8153600a850494508461387e57509392505050565b60006001600160e01b031982166380ac58cd60e01b14806138e157506001600160e01b03198216635b5e139f60e01b145b80610941575061094182613b58565b600060016138fd846110f0565b6139079190614570565b60008381526009602052604090205490915080821461395a576001600160a01b03841660009081526008602090815260408083208584528252808320548484528184208190558352600990915290208190555b5060009182526009602090815260408084208490556001600160a01b039094168352600881528383209183525290812055565b600a5460009061399f90600190614570565b6000838152600b6020526040812054600a80549394509092849081106139c7576139c76144ea565b9060005260206000200154905080600a83815481106139e8576139e86144ea565b6000918252602080832090910192909255828152600b9091526040808220849055858252812055600a805480613a2057613a2061461a565b6001900381819060005260206000200160009055905550505050565b6000613a47836110f0565b6001600160a01b039093166000908152600860209081526040808320868452825280832085905593825260099052919091209190915550565b60008072184f03e93ff9f4daa797ed6e38ed64bf6a1f0160401b8310613abf5772184f03e93ff9f4daa797ed6e38ed64bf6a1f0160401b830492506040015b6d04ee2d6d415b85acef81000000008310613aeb576d04ee2d6d415b85acef8100000000830492506020015b662386f26fc100008310613b0957662386f26fc10000830492506010015b6305f5e1008310613b21576305f5e100830492506008015b6127108310613b3557612710830492506004015b60648310613b47576064830492506002015b600a83106109415760010192915050565b60006001600160e01b0319821663152a902d60e11b148061094157506301ffc9a760e01b6001600160e01b0319831614610941565b6040518060c00160405280600081526020016000815260200160006001600160a01b0316815260200160001515815260200160608152602001600081525090565b600060208284031215613be057600080fd5b5035919050565b6001600160e01b03198116811461208d57600080fd5b600060208284031215613c0f57600080fd5b813561369181613be7565b60005b83811015613c35578181015183820152602001613c1d565b50506000910152565b60008151808452613c56816020860160208601613c1a565b601f01601f19169290920160200192915050565b6020815260006136916020830184613c3e565b80356001600160a01b0381168114613c9457600080fd5b919050565b60008060408385031215613cac57600080fd5b613cb583613c7d565b946020939093013593505050565b600080600060608486031215613cd857600080fd5b613ce184613c7d565b9250613cef60208501613c7d565b9150604084013590509250925092565b60008060408385031215613d1257600080fd5b50508035926020909101359150565b634e487b7160e01b600052604160045260246000fd5b604051601f8201601f1916810167ffffffffffffffff81118282101715613d6057613d60613d21565b604052919050565b600067ffffffffffffffff831115613d8257613d82613d21565b613d95601f8401601f1916602001613d37565b9050828152838383011115613da957600080fd5b828260208301376000602084830101529392505050565b600082601f830112613dd157600080fd5b61369183833560208501613d68565b600080600060608486031215613df557600080fd5b613dfe84613c7d565b9250602084013567ffffffffffffffff811115613e1a57600080fd5b613e2686828701613dc0565b92505060408401356001600160601b0381168114613e4357600080fd5b809150509250925092565b805182526020810151602083015260018060a01b0360408201511660408301526060810151151560608301526000608082015160c06080850152613e9560c0850182613c3e565b60a093840151949093019390935250919050565b6020815260006136916020830184613e4e565b600060208284031215613ece57600080fd5b61369182613c7d565b60008060408385031215613eea57600080fd5b823567ffffffffffffffff80821115613f0257600080fd5b818501915085601f830112613f1657600080fd5b8135602082821115613f2a57613f2a613d21565b8160051b613f39828201613d37565b928352848101820192828101908a851115613f5357600080fd5b83870192505b84831015613f8f57823586811115613f715760008081fd5b613f7f8c86838b0101613dc0565b8352509183019190830190613f59565b9a9890920135985050505050505050565b6020808252825182820181905260009190848201906040850190845b81811015613fd857835183529284019291840191600101613fbc565b50909695505050505050565b602080825282518282018190526000919060409081850190868401855b8281101561405157815180516001600160a01b0390811686528782015116878601528581015186860152606080820151908601526080908101519085015260a09093019290850190600101614001565b5091979650505050505050565b60008060006040848603121561407357600080fd5b833567ffffffffffffffff8082111561408b57600080fd5b818601915086601f83011261409f57600080fd5b8135818111156140ae57600080fd5b8760208260051b85010111156140c357600080fd5b6020928301989097509590910135949350505050565b6000602080830181845280855180835260408601915060408160051b870101925083870160005b8281101561412e57603f1988860301845261411c858351613e4e565b94509285019290850190600101614100565b5092979650505050505050565b602080825282518282018190526000919060409081850190868401855b8281101561405157815180518552868101516001600160a01b03908116888701528682015187870152606080830151908701526080808301519091169086015260a0808201519086015260c09081015115159085015260e09093019290850190600101614158565b600080604083850312156141d357600080fd5b6141dc83613c7d565b9150602083013580151581146141f157600080fd5b809150509250929050565b6000806000806080858703121561421257600080fd5b61421b85613c7d565b935061422960208601613c7d565b925060408501359150606085013567ffffffffffffffff81111561424c57600080fd5b8501601f8101871361425d57600080fd5b61426c87823560208401613d68565b91505092959194509250565b60008060006060848603121561428d57600080fd5b505081359360208301359350604090920135919050565b600080604083850312156142b757600080fd5b6142c083613c7d565b91506142ce60208401613c7d565b90509250929050565b600181811c908216806142eb57607f821691505b60208210810361430b57634e487b7160e01b600052602260045260246000fd5b50919050565b6020808252602d908201527f4552433732313a2063616c6c6572206973206e6f7420746f6b656e206f776e6560408201526c1c881bdc88185c1c1c9bdd9959609a1b606082015260800190565b634e487b7160e01b600052601160045260246000fd5b80820281158282048414176109415761094161435e565b6000826143a857634e487b7160e01b600052601260045260246000fd5b500490565b600083516143bf818460208801613c1a565b8351908301906143d3818360208801613c1a565b01949350505050565b601f821115610b1057600081815260208120601f850160051c810160208610156144035750805b601f850160051c820191505b818110156144225782815560010161440f565b505050505050565b815167ffffffffffffffff81111561444457614444613d21565b6144588161445284546142d7565b846143dc565b602080601f83116001811461448d57600084156144755750858301515b600019600386901b1c1916600185901b178555614422565b600085815260208120601f198616915b828110156144bc5788860151825594840194600190910190840161449d565b50858210156144da5787850151600019600388901b60f8161c191681555b5050505050600190811b01905550565b634e487b7160e01b600052603260045260246000fd5b60208082526024908201527f555249206c656e677468206d75737420626520657175616c20746f207175616e6040820152637469747960e01b606082015260800190565b6000600182016145565761455661435e565b5060010190565b808201808211156109415761094161435e565b818103818111156109415761094161435e565b60208082526025908201527f4552433732313a207472616e736665722066726f6d20696e636f72726563742060408201526437bbb732b960d91b606082015260800190565b60208082526032908201527f4552433732313a207472616e7366657220746f206e6f6e20455243373231526560408201527131b2b4bb32b91034b6b83632b6b2b73a32b960711b606082015260800190565b634e487b7160e01b600052603160045260246000fd5b6001600160a01b038581168252841660208201526040810183905260806060820181905260009061466390830184613c3e565b9695505050505050565b60006020828403121561467f57600080fd5b815161369181613be756fe68747470733a2f2f6c696d652d72616e646f6d2d6d6974652d3536332e6d7970696e6174612e636c6f75642f697066732fa2646970667358221220671f580543ec22497239cc3d6d8059c2b6770c953d50aa07c80e9331cf5b7ad064736f6c63430008110033",
  "devdoc": {
    "kind": "dev",
    "methods": {
      "approve(address,uint256)": {
        "details": "See {IERC721-approve}."
      },
      "balanceOf(address)": {
        "details": "See {IERC721-balanceOf}."
      },
      "createAuction(uint256,uint256,uint256)": {
        "details": "",
        "params": {
          "duration": "",
          "startingBid": "",
          "tokenId": "NFTToken ID"
        }
      },
      "endAuction(uint256)": {
        "details": "",
        "params": {
          "tokenId": "NFTToken ID"
        }
      },
      "getAllListedNfts()": {
        "details": "NFT",
        "returns": {
          "_0": "An array of NftItem structs"
        }
      },
      "getApproved(uint256)": {
        "details": "See {IERC721-getApproved}."
      },
      "getCurrentBid(uint256)": {
        "details": "NFT",
        "params": {
          "tokenId": "NFTToken ID"
        }
      },
      "getHighestBidder(uint256)": {
        "details": "NFT",
        "params": {
          "tokenId": "NFTToken ID"
        }
      },
      "getNftItem(uint256)": {
        "details": "NftItem",
        "params": {
          "tokenId": "NFTToken ID"
        },
        "returns": {
          "_0": "NftItem"
        }
      },
      "getTradeHistory(uint256)": {
        "details": " tokenId ",
        "params": {
          "tokenId": "NFTToken ID"
        },
        "returns": {
          "_0": "TradeHistory[] "
        }
      },
      "isApprovedForAll(address,address)": {
        "details": "See {IERC721-isApprovedForAll}."
      },
      "mintBatch(string[],uint256)": {
        "details": "NFTNFT",
        "params": {
          "quantity": "",
          "uris": "NFTURI"
        },
        "returns": {
          "_0": "mintedTokenIds NFTToken ID"
        }
      },
      "mintBatchForAirdrop(string[],uint256)": {
        "details": "NFTNFT",
        "params": {
          "quantity": "",
          "uris": "NFTURI"
        },
        "returns": {
          "_0": "mintedTokenIds NFTToken ID"
        }
      },
      "mintItem(address,string,uint96)": {
        "details": "NFT",
        "params": {
          "feeNumerator": "5005%",
          "to": "",
          "uri": "NFTURI"
        },
        "returns": {
          "_0": "tokenId NFTToken ID"
        }
      },
      "name()": {
        "details": "See {IERC721Metadata-name}."
      },
      "owner()": {
        "details": "Returns the address of the current owner."
      },
      "ownerOf(uint256)": {
        "details": "See {IERC721-ownerOf}."
      },
      "placeBid(uint256)": {
        "details": "",
        "params": {
          "tokenId": "NFTToken ID"
        }
      },
      "placeNftOnSale(uint256,uint256,uint256)": {
        "details": "NFT",
        "params": {
          "duration": "0 ",
          "price": "",
          "tokenId": "NFTToken ID"
        }
      },
      "purchaseNft(uint256)": {
        "details": "NFT",
        "params": {
          "tokenId": "NFTToken ID"
        }
      },
      "renounceOwnership()": {
        "details": "Leaves the contract without owner. It will not be possible to call `onlyOwner` functions. Can only be called by the current owner. NOTE: Renouncing ownership will leave the contract without an owner, thereby disabling any functionality that is only available to the owner."
      },
      "royaltyInfo(uint256,uint256)": {
        "details": "Returns how much royalty is owed and to whom, based on a sale price that may be denominated in any unit of exchange. The royalty amount is denominated and should be paid in that same unit of exchange."
      },
      "safeTransferFrom(address,address,uint256)": {
        "details": "See {IERC721-safeTransferFrom}."
      },
      "safeTransferFrom(address,address,uint256,bytes)": {
        "details": "See {IERC721-safeTransferFrom}."
      },
      "setApprovalForAll(address,bool)": {
        "details": "See {IERC721-setApprovalForAll}."
      },
      "symbol()": {
        "details": "See {IERC721Metadata-symbol}."
      },
      "tokenByIndex(uint256)": {
        "details": "See {IERC721Enumerable-tokenByIndex}."
      },
      "tokenOfOwnerByIndex(address,uint256)": {
        "details": "See {IERC721Enumerable-tokenOfOwnerByIndex}."
      },
      "totalSupply()": {
        "details": "See {IERC721Enumerable-totalSupply}."
      },
      "transferFrom(address,address,uint256)": {
        "details": "See {IERC721-transferFrom}."
      },
      "transferOwnership(address)": {
        "details": "Transfers ownership of the contract to a new account (`newOwner`). Can only be called by the current owner."
      },
      "unlistNft(uint256)": {
        "details": "NFT",
        "params": {
          "tokenId": "NFTToken ID"
        }
      },
      "updateListingFeePercentage(uint256)": {
        "details": "",
        "params": {
          "newListingFeePercentage": ""
        }
      },
      "withdrawFees()": {
        "details": ""
      }
    },
    "version": 1
  },
  "userdoc": {
    "kind": "user",
    "methods": {},
    "version": 1
  },
  "storageLayout": {
    "storage": [
      {
        "astId": 1916,
        "contract": "contracts/YourCollectible.sol:YourCollectible",
        "label": "_defaultRoyaltyInfo",
        "offset": 0,
        "slot": "0",
        "type": "t_struct(RoyaltyInfo)1913_storage"
      },
      {
        "astId": 1921,
        "contract": "contracts/YourCollectible.sol:YourCollectible",
        "label": "_tokenRoyaltyInfo",
        "offset": 0,
        "slot": "1",
        "type": "t_mapping(t_uint256,t_struct(RoyaltyInfo)1913_storage)"
      },
      {
        "astId": 250,
        "contract": "contracts/YourCollectible.sol:YourCollectible",
        "label": "_name",
        "offset": 0,
        "slot": "2",
        "type": "t_string_storage"
      },
      {
        "astId": 252,
        "contract": "contracts/YourCollectible.sol:YourCollectible",
        "label": "_symbol",
        "offset": 0,
        "slot": "3",
        "type": "t_string_storage"
      },
      {
        "astId": 256,
        "contract": "contracts/YourCollectible.sol:YourCollectible",
        "label": "_owners",
        "offset": 0,
        "slot": "4",
        "type": "t_mapping(t_uint256,t_address)"
      },
      {
        "astId": 260,
        "contract": "contracts/YourCollectible.sol:YourCollectible",
        "label": "_balances",
        "offset": 0,
        "slot": "5",
        "type": "t_mapping(t_address,t_uint256)"
      },
      {
        "astId": 264,
        "contract": "contracts/YourCollectible.sol:YourCollectible",
        "label": "_tokenApprovals",
        "offset": 0,
        "slot": "6",
        "type": "t_mapping(t_uint256,t_address)"
      },
      {
        "astId": 270,
        "contract": "contracts/YourCollectible.sol:YourCollectible",
        "label": "_operatorApprovals",
        "offset": 0,
        "slot": "7",
        "type": "t_mapping(t_address,t_mapping(t_address,t_bool))"
      },
      {
        "astId": 1300,
        "contract": "contracts/YourCollectible.sol:YourCollectible",
        "label": "_ownedTokens",
        "offset": 0,
        "slot": "8",
        "type": "t_mapping(t_address,t_mapping(t_uint256,t_uint256))"
      },
      {
        "astId": 1304,
        "contract": "contracts/YourCollectible.sol:YourCollectible",
        "label": "_ownedTokensIndex",
        "offset": 0,
        "slot": "9",
        "type": "t_mapping(t_uint256,t_uint256)"
      },
      {
        "astId": 1307,
        "contract": "contracts/YourCollectible.sol:YourCollectible",
        "label": "_allTokens",
        "offset": 0,
        "slot": "10",
        "type": "t_array(t_uint256)dyn_storage"
      },
      {
        "astId": 1311,
        "contract": "contracts/YourCollectible.sol:YourCollectible",
        "label": "_allTokensIndex",
        "offset": 0,
        "slot": "11",
        "type": "t_mapping(t_uint256,t_uint256)"
      },
      {
        "astId": 1701,
        "contract": "contracts/YourCollectible.sol:YourCollectible",
        "label": "_tokenURIs",
        "offset": 0,
        "slot": "12",
        "type": "t_mapping(t_uint256,t_string_storage)"
      },
      {
        "astId": 7,
        "contract": "contracts/YourCollectible.sol:YourCollectible",
        "label": "_owner",
        "offset": 0,
        "slot": "13",
        "type": "t_address"
      },
      {
        "astId": 170,
        "contract": "contracts/YourCollectible.sol:YourCollectible",
        "label": "_status",
        "offset": 0,
        "slot": "14",
        "type": "t_uint256"
      },
      {
        "astId": 4324,
        "contract": "contracts/YourCollectible.sol:YourCollectible",
        "label": "tokenIdCounter",
        "offset": 0,
        "slot": "15",
        "type": "t_struct(Counter)2463_storage"
      },
      {
        "astId": 4326,
        "contract": "contracts/YourCollectible.sol:YourCollectible",
        "label": "totalFeesCollected",
        "offset": 0,
        "slot": "16",
        "type": "t_uint256"
      },
      {
        "astId": 4370,
        "contract": "contracts/YourCollectible.sol:YourCollectible",
        "label": "_idToNftItem",
        "offset": 0,
        "slot": "17",
        "type": "t_mapping(t_uint256,t_struct(NftItem)4339_storage)"
      },
      {
        "astId": 4375,
        "contract": "contracts/YourCollectible.sol:YourCollectible",
        "label": "_idToAuction",
        "offset": 0,
        "slot": "18",
        "type": "t_mapping(t_uint256,t_struct(Auction)4354_storage)"
      },
      {
        "astId": 4378,
        "contract": "contracts/YourCollectible.sol:YourCollectible",
        "label": "_auctionedTokenIds",
        "offset": 0,
        "slot": "19",
        "type": "t_array(t_uint256)dyn_storage"
      },
      {
        "astId": 4382,
        "contract": "contracts/YourCollectible.sol:YourCollectible",
        "label": "_usedTokenURIs",
        "offset": 0,
        "slot": "20",
        "type": "t_mapping(t_string_memory_ptr,t_bool)"
      },
      {
        "astId": 4385,
        "contract": "contracts/YourCollectible.sol:YourCollectible",
        "label": "_listedTokenIds",
        "offset": 0,
        "slot": "21",
        "type": "t_array(t_uint256)dyn_storage"
      },
      {
        "astId": 4389,
        "contract": "contracts/YourCollectible.sol:YourCollectible",
        "label": "_tokenIdToListedIndex",
        "offset": 0,
        "slot": "22",
        "type": "t_mapping(t_uint256,t_uint256)"
      },
      {
        "astId": 4392,
        "contract": "contracts/YourCollectible.sol:YourCollectible",
        "label": "listingFeePercentage",
        "offset": 0,
        "slot": "23",
        "type": "t_uint256"
      },
      {
        "astId": 4401,
        "contract": "contracts/YourCollectible.sol:YourCollectible",
        "label": "_tradeHistories",
        "offset": 0,
        "slot": "24",
        "type": "t_mapping(t_uint256,t_array(t_struct(TradeHistory)4365_storage)dyn_storage)"
      },
      {
        "astId": 4498,
        "contract": "contracts/YourCollectible.sol:YourCollectible",
        "label": "merkleRoot",
        "offset": 0,
        "slot": "25",
        "type": "t_bytes32"
      },
      {
        "astId": 4502,
        "contract": "contracts/YourCollectible.sol:YourCollectible",
        "label": "hasClaimed",
        "offset": 0,
        "slot": "26",
        "type": "t_mapping(t_address,t_bool)"
      }
    ],
    "types": {
      "t_address": {
        "encoding": "inplace",
        "label": "address",
        "numberOfBytes": "20"
      },
      "t_address_payable": {
        "encoding": "inplace",
        "label": "address payable",
        "numberOfBytes": "20"
      },
      "t_array(t_struct(TradeHistory)4365_storage)dyn_storage": {
        "base": "t_struct(TradeHistory)4365_storage",
        "encoding": "dynamic_array",
        "label": "struct YourCollectible.TradeHistory[]",
        "numberOfBytes": "32"
      },
      "t_array(t_uint256)dyn_storage": {
        "base": "t_uint256",
        "encoding": "dynamic_array",
        "label": "uint256[]",
        "numberOfBytes": "32"
      },
      "t_bool": {
        "encoding": "inplace",
        "label": "bool",
        "numberOfBytes": "1"
      },
      "t_bytes32": {
        "encoding": "inplace",
        "label": "bytes32",
        "numberOfBytes": "32"
      },
      "t_mapping(t_address,t_bool)": {
        "encoding": "mapping",
        "key": "t_address",
        "label": "mapping(address => bool)",
        "numberOfBytes": "32",
        "value": "t_bool"
      },
      "t_mapping(t_address,t_mapping(t_address,t_bool))": {
        "encoding": "mapping",
        "key": "t_address",
        "label": "mapping(address => mapping(address => bool))",
        "numberOfBytes": "32",
        "value": "t_mapping(t_address,t_bool)"
      },
      "t_mapping(t_address,t_mapping(t_uint256,t_uint256))": {
        "encoding": "mapping",
        "key": "t_address",
        "label": "mapping(address => mapping(uint256 => uint256))",
        "numberOfBytes": "32",
        "value": "t_mapping(t_uint256,t_uint256)"
      },
      "t_mapping(t_address,t_uint256)": {
        "encoding": "mapping",
        "key": "t_address",
        "label": "mapping(address => uint256)",
        "numberOfBytes": "32",
        "value": "t_uint256"
      },
      "t_mapping(t_string_memory_ptr,t_bool)": {
        "encoding": "mapping",
        "key": "t_string_memory_ptr",
        "label": "mapping(string => bool)",
        "numberOfBytes": "32",
        "value": "t_bool"
      },
      "t_mapping(t_uint256,t_address)": {
        "encoding": "mapping",
        "key": "t_uint256",
        "label": "mapping(uint256 => address)",
        "numberOfBytes": "32",
        "value": "t_address"
      },
      "t_mapping(t_uint256,t_array(t_struct(TradeHistory)4365_storage)dyn_storage)": {
        "encoding": "mapping",
        "key": "t_uint256",
        "label": "mapping(uint256 => struct YourCollectible.TradeHistory[])",
        "numberOfBytes": "32",
        "value": "t_array(t_struct(TradeHistory)4365_storage)dyn_storage"
      },
      "t_mapping(t_uint256,t_string_storage)": {
        "encoding": "mapping",
        "key": "t_uint256",
        "label": "mapping(uint256 => string)",
        "numberOfBytes": "32",
        "value": "t_string_storage"
      },
      "t_mapping(t_uint256,t_struct(Auction)4354_storage)": {
        "encoding": "mapping",
        "key": "t_uint256",
        "label": "mapping(uint256 => struct YourCollectible.Auction)",
        "numberOfBytes": "32",
        "value": "t_struct(Auction)4354_storage"
      },
      "t_mapping(t_uint256,t_struct(NftItem)4339_storage)": {
        "encoding": "mapping",
        "key": "t_uint256",
        "label": "mapping(uint256 => struct YourCollectible.NftItem)",
        "numberOfBytes": "32",
        "value": "t_struct(NftItem)4339_storage"
      },
      "t_mapping(t_uint256,t_struct(RoyaltyInfo)1913_storage)": {
        "encoding": "mapping",
        "key": "t_uint256",
        "label": "mapping(uint256 => struct ERC2981.RoyaltyInfo)",
        "numberOfBytes": "32",
        "value": "t_struct(RoyaltyInfo)1913_storage"
      },
      "t_mapping(t_uint256,t_uint256)": {
        "encoding": "mapping",
        "key": "t_uint256",
        "label": "mapping(uint256 => uint256)",
        "numberOfBytes": "32",
        "value": "t_uint256"
      },
      "t_string_memory_ptr": {
        "encoding": "bytes",
        "label": "string",
        "numberOfBytes": "32"
      },
      "t_string_storage": {
        "encoding": "bytes",
        "label": "string",
        "numberOfBytes": "32"
      },
      "t_struct(Auction)4354_storage": {
        "encoding": "inplace",
        "label": "struct YourCollectible.Auction",
        "members": [
          {
            "astId": 4341,
            "contract": "contracts/YourCollectible.sol:YourCollectible",
            "label": "tokenId",
            "offset": 0,
            "slot": "0",
            "type": "t_uint256"
          },
          {
            "astId": 4343,
            "contract": "contracts/YourCollectible.sol:YourCollectible",
            "label": "seller",
            "offset": 0,
            "slot": "1",
            "type": "t_address_payable"
          },
          {
            "astId": 4345,
            "contract": "contracts/YourCollectible.sol:YourCollectible",
            "label": "startingBid",
            "offset": 0,
            "slot": "2",
            "type": "t_uint256"
          },
          {
            "astId": 4347,
            "contract": "contracts/YourCollectible.sol:YourCollectible",
            "label": "currentBid",
            "offset": 0,
            "slot": "3",
            "type": "t_uint256"
          },
          {
            "astId": 4349,
            "contract": "contracts/YourCollectible.sol:YourCollectible",
            "label": "highestBidder",
            "offset": 0,
            "slot": "4",
            "type": "t_address_payable"
          },
          {
            "astId": 4351,
            "contract": "contracts/YourCollectible.sol:YourCollectible",
            "label": "endTime",
            "offset": 0,
            "slot": "5",
            "type": "t_uint256"
          },
          {
            "astId": 4353,
            "contract": "contracts/YourCollectible.sol:YourCollectible",
            "label": "isActive",
            "offset": 0,
            "slot": "6",
            "type": "t_bool"
          }
        ],
        "numberOfBytes": "224"
      },
      "t_struct(Counter)2463_storage": {
        "encoding": "inplace",
        "label": "struct Counters.Counter",
        "members": [
          {
            "astId": 2462,
            "contract": "contracts/YourCollectible.sol:YourCollectible",
            "label": "_value",
            "offset": 0,
            "slot": "0",
            "type": "t_uint256"
          }
        ],
        "numberOfBytes": "32"
      },
      "t_struct(NftItem)4339_storage": {
        "encoding": "inplace",
        "label": "struct YourCollectible.NftItem",
        "members": [
          {
            "astId": 4328,
            "contract": "contracts/YourCollectible.sol:YourCollectible",
            "label": "tokenId",
            "offset": 0,
            "slot": "0",
            "type": "t_uint256"
          },
          {
            "astId": 4330,
            "contract": "contracts/YourCollectible.sol:YourCollectible",
            "label": "price",
            "offset": 0,
            "slot": "1",
            "type": "t_uint256"
          },
          {
            "astId": 4332,
            "contract": "contracts/YourCollectible.sol:YourCollectible",
            "label": "seller",
            "offset": 0,
            "slot": "2",
            "type": "t_address_payable"
          },
          {
            "astId": 4334,
            "contract": "contracts/YourCollectible.sol:YourCollectible",
            "label": "isListed",
            "offset": 20,
            "slot": "2",
            "type": "t_bool"
          },
          {
            "astId": 4336,
            "contract": "contracts/YourCollectible.sol:YourCollectible",
            "label": "tokenUri",
            "offset": 0,
            "slot": "3",
            "type": "t_string_storage"
          },
          {
            "astId": 4338,
            "contract": "contracts/YourCollectible.sol:YourCollectible",
            "label": "expirationTime",
            "offset": 0,
            "slot": "4",
            "type": "t_uint256"
          }
        ],
        "numberOfBytes": "160"
      },
      "t_struct(RoyaltyInfo)1913_storage": {
        "encoding": "inplace",
        "label": "struct ERC2981.RoyaltyInfo",
        "members": [
          {
            "astId": 1910,
            "contract": "contracts/YourCollectible.sol:YourCollectible",
            "label": "receiver",
            "offset": 0,
            "slot": "0",
            "type": "t_address"
          },
          {
            "astId": 1912,
            "contract": "contracts/YourCollectible.sol:YourCollectible",
            "label": "royaltyFraction",
            "offset": 20,
            "slot": "0",
            "type": "t_uint96"
          }
        ],
        "numberOfBytes": "32"
      },
      "t_struct(TradeHistory)4365_storage": {
        "encoding": "inplace",
        "label": "struct YourCollectible.TradeHistory",
        "members": [
          {
            "astId": 4356,
            "contract": "contracts/YourCollectible.sol:YourCollectible",
            "label": "from",
            "offset": 0,
            "slot": "0",
            "type": "t_address"
          },
          {
            "astId": 4358,
            "contract": "contracts/YourCollectible.sol:YourCollectible",
            "label": "to",
            "offset": 0,
            "slot": "1",
            "type": "t_address"
          },
          {
            "astId": 4360,
            "contract": "contracts/YourCollectible.sol:YourCollectible",
            "label": "price",
            "offset": 0,
            "slot": "2",
            "type": "t_uint256"
          },
          {
            "astId": 4362,
            "contract": "contracts/YourCollectible.sol:YourCollectible",
            "label": "royalty",
            "offset": 0,
            "slot": "3",
            "type": "t_uint256"
          },
          {
            "astId": 4364,
            "contract": "contracts/YourCollectible.sol:YourCollectible",
            "label": "timestamp",
            "offset": 0,
            "slot": "4",
            "type": "t_uint256"
          }
        ],
        "numberOfBytes": "160"
      },
      "t_uint256": {
        "encoding": "inplace",
        "label": "uint256",
        "numberOfBytes": "32"
      },
      "t_uint96": {
        "encoding": "inplace",
        "label": "uint96",
        "numberOfBytes": "12"
      }
    }
  }
}