{
  "address": "0x53CfdEA12Fb50a8a6dF439788361f7F38341B23d",
  "abi": [
    {
      "inputs": [],
      "stateMutability": "nonpayable",
      "type": "constructor"
    },
    {
      "anonymous": false,
      "inputs": [
        {
          "indexed": true,
          "internalType": "address",
          "name": "owner",
          "type": "address"
        },
        {
          "indexed": true,
          "internalType": "address",
          "name": "approved",
          "type": "address"
        },
        {
          "indexed": true,
          "internalType": "uint256",
          "name": "tokenId",
          "type": "uint256"
        }
      ],
      "name": "Approval",
      "type": "event"
    },
    {
      "anonymous": false,
      "inputs": [
        {
          "indexed": true,
          "internalType": "address",
          "name": "owner",
          "type": "address"
        },
        {
          "indexed": true,
          "internalType": "address",
          "name": "operator",
          "type": "address"
        },
        {
          "indexed": false,
          "internalType": "bool",
          "name": "approved",
          "type": "bool"
        }
      ],
      "name": "ApprovalForAll",
      "type": "event"
    },
    {
      "anonymous": false,
      "inputs": [
        {
          "indexed": true,
          "internalType": "uint256",
          "name": "tokenId",
          "type": "uint256"
        },
        {
          "indexed": true,
          "internalType": "address",
          "name": "seller",
          "type": "address"
        },
        {
          "indexed": false,
          "internalType": "uint256",
          "name": "startingBid",
          "type": "uint256"
        },
        {
          "indexed": false,
          "internalType": "uint256",
          "name": "endTime",
          "type": "uint256"
        }
      ],
      "name": "AuctionCreated",
      "type": "event"
    },
    {
      "anonymous": false,
      "inputs": [
        {
          "indexed": true,
          "internalType": "uint256",
          "name": "tokenId",
          "type": "uint256"
        },
        {
          "indexed": true,
          "internalType": "address",
          "name": "highestBidder",
          "type": "address"
        },
        {
          "indexed": false,
          "internalType": "uint256",
          "name": "highestBid",
          "type": "uint256"
        }
      ],
      "name": "AuctionEnded",
      "type": "event"
    },
    {
      "anonymous": false,
      "inputs": [
        {
          "indexed": false,
          "internalType": "uint256",
          "name": "_fromTokenId",
          "type": "uint256"
        },
        {
          "indexed": false,
          "internalType": "uint256",
          "name": "_toTokenId",
          "type": "uint256"
        }
      ],
      "name": "BatchMetadataUpdate",
      "type": "event"
    },
    {
      "anonymous": false,
      "inputs": [
        {
          "indexed": true,
          "internalType": "uint256",
          "name": "tokenId",
          "type": "uint256"
        },
        {
          "indexed": true,
          "internalType": "address",
          "name": "bidder",
          "type": "address"
        },
        {
          "indexed": false,
          "internalType": "uint256",
          "name": "bidAmount",
          "type": "uint256"
        }
      ],
      "name": "BidPlaced",
      "type": "event"
    },
    {
      "anonymous": false,
      "inputs": [
        {
          "indexed": true,
          "internalType": "address",
          "name": "sender",
          "type": "address"
        },
        {
          "indexed": false,
          "internalType": "uint256",
          "name": "amount",
          "type": "uint256"
        }
      ],
      "name": "FeesReceived",
      "type": "event"
    },
    {
      "anonymous": false,
      "inputs": [
        {
          "indexed": true,
          "internalType": "address",
          "name": "owner",
          "type": "address"
        },
        {
          "indexed": false,
          "internalType": "uint256",
          "name": "amount",
          "type": "uint256"
        }
      ],
      "name": "FeesWithdrawn",
      "type": "event"
    },
    {
      "anonymous": false,
      "inputs": [
        {
          "indexed": false,
          "internalType": "uint256",
          "name": "newListingFeePercentage",
          "type": "uint256"
        }
      ],
      "name": "ListingFeePercentageUpdated",
      "type": "event"
    },
    {
      "anonymous": false,
      "inputs": [
        {
          "indexed": false,
          "internalType": "uint256",
          "name": "_tokenId",
          "type": "uint256"
        }
      ],
      "name": "MetadataUpdate",
      "type": "event"
    },
    {
      "anonymous": false,
      "inputs": [
        {
          "indexed": true,
          "internalType": "uint256",
          "name": "tokenId",
          "type": "uint256"
        },
        {
          "indexed": true,
          "internalType": "address",
          "name": "seller",
          "type": "address"
        },
        {
          "indexed": false,
          "internalType": "uint256",
          "name": "price",
          "type": "uint256"
        }
      ],
      "name": "NftListed",
      "type": "event"
    },
    {
      "anonymous": false,
      "inputs": [
        {
          "indexed": true,
          "internalType": "uint256",
          "name": "tokenId",
          "type": "uint256"
        },
        {
          "indexed": true,
          "internalType": "address",
          "name": "buyer",
          "type": "address"
        },
        {
          "indexed": false,
          "internalType": "uint256",
          "name": "price",
          "type": "uint256"
        }
      ],
      "name": "NftPurchased",
      "type": "event"
    },
    {
      "anonymous": false,
      "inputs": [
        {
          "indexed": true,
          "internalType": "uint256",
          "name": "tokenId",
          "type": "uint256"
        },
        {
          "indexed": true,
          "internalType": "address",
          "name": "seller",
          "type": "address"
        }
      ],
      "name": "NftUnlisted",
      "type": "event"
    },
    {
      "anonymous": false,
      "inputs": [
        {
          "indexed": true,
          "internalType": "address",
          "name": "previousOwner",
          "type": "address"
        },
        {
          "indexed": true,
          "internalType": "address",
          "name": "newOwner",
          "type": "address"
        }
      ],
      "name": "OwnershipTransferred",
      "type": "event"
    },
    {
      "anonymous": false,
      "inputs": [
        {
          "indexed": true,
          "internalType": "uint256",
          "name": "tokenId",
          "type": "uint256"
        },
        {
          "indexed": true,
          "internalType": "address",
          "name": "receiver",
          "type": "address"
        },
        {
          "indexed": false,
          "internalType": "uint96",
          "name": "feeNumerator",
          "type": "uint96"
        }
      ],
      "name": "RoyaltySet",
      "type": "event"
    },
    {
      "anonymous": false,
      "inputs": [
        {
          "indexed": true,
          "internalType": "address",
          "name": "from",
          "type": "address"
        },
        {
          "indexed": true,
          "internalType": "address",
          "name": "to",
          "type": "address"
        },
        {
          "indexed": true,
          "internalType": "uint256",
          "name": "tokenId",
          "type": "uint256"
        }
      ],
      "name": "Transfer",
      "type": "event"
    },
    {
      "inputs": [],
      "name": "MAX_LISTING_FEE_PERCENTAGE",
      "outputs": [
        {
          "internalType": "uint256",
          "name": "",
          "type": "uint256"
        }
      ],
      "stateMutability": "view",
      "type": "function"
    },
    {
      "inputs": [
        {
          "internalType": "address",
          "name": "to",
          "type": "address"
        },
        {
          "internalType": "uint256",
          "name": "tokenId",
          "type": "uint256"
        }
      ],
      "name": "approve",
      "outputs": [],
      "stateMutability": "nonpayable",
      "type": "function"
    },
    {
      "inputs": [
        {
          "internalType": "address",
          "name": "owner",
          "type": "address"
        }
      ],
      "name": "balanceOf",
      "outputs": [
        {
          "internalType": "uint256",
          "name": "",
          "type": "uint256"
        }
      ],
      "stateMutability": "view",
      "type": "function"
    },
    {
      "inputs": [
        {
          "internalType": "uint256",
          "name": "tokenId",
          "type": "uint256"
        },
        {
          "internalType": "uint256",
          "name": "startingBid",
          "type": "uint256"
        },
        {
          "internalType": "uint256",
          "name": "duration",
          "type": "uint256"
        }
      ],
      "name": "createAuction",
      "outputs": [],
      "stateMutability": "nonpayable",
      "type": "function"
    },
    {
      "inputs": [
        {
          "internalType": "uint256",
          "name": "tokenId",
          "type": "uint256"
        }
      ],
      "name": "endAuction",
      "outputs": [],
      "stateMutability": "nonpayable",
      "type": "function"
    },
    {
      "inputs": [],
      "name": "getAllListedNfts",
      "outputs": [
        {
          "components": [
            {
              "internalType": "uint256",
              "name": "tokenId",
              "type": "uint256"
            },
            {
              "internalType": "uint256",
              "name": "price",
              "type": "uint256"
            },
            {
              "internalType": "address payable",
              "name": "seller",
              "type": "address"
            },
            {
              "internalType": "bool",
              "name": "isListed",
              "type": "bool"
            },
            {
              "internalType": "string",
              "name": "tokenUri",
              "type": "string"
            },
            {
              "internalType": "uint256",
              "name": "expirationTime",
              "type": "uint256"
            }
          ],
          "internalType": "struct YourCollectible.NftItem[]",
          "name": "",
          "type": "tuple[]"
        }
      ],
      "stateMutability": "view",
      "type": "function"
    },
    {
      "inputs": [
        {
          "internalType": "uint256",
          "name": "tokenId",
          "type": "uint256"
        }
      ],
      "name": "getApproved",
      "outputs": [
        {
          "internalType": "address",
          "name": "",
          "type": "address"
        }
      ],
      "stateMutability": "view",
      "type": "function"
    },
    {
      "inputs": [
        {
          "internalType": "uint256",
          "name": "tokenId",
          "type": "uint256"
        }
      ],
      "name": "getCurrentBid",
      "outputs": [
        {
          "internalType": "uint256",
          "name": "",
          "type": "uint256"
        }
      ],
      "stateMutability": "view",
      "type": "function"
    },
    {
      "inputs": [
        {
          "internalType": "uint256",
          "name": "tokenId",
          "type": "uint256"
        }
      ],
      "name": "getHighestBidder",
      "outputs": [
        {
          "internalType": "address",
          "name": "",
          "type": "address"
        }
      ],
      "stateMutability": "view",
      "type": "function"
    },
    {
      "inputs": [
        {
          "internalType": "uint256",
          "name": "tokenId",
          "type": "uint256"
        }
      ],
      "name": "getNftItem",
      "outputs": [
        {
          "components": [
            {
              "internalType": "uint256",
              "name": "tokenId",
              "type": "uint256"
            },
            {
              "internalType": "uint256",
              "name": "price",
              "type": "uint256"
            },
            {
              "internalType": "address payable",
              "name": "seller",
              "type": "address"
            },
            {
              "internalType": "bool",
              "name": "isListed",
              "type": "bool"
            },
            {
              "internalType": "string",
              "name": "tokenUri",
              "type": "string"
            },
            {
              "internalType": "uint256",
              "name": "expirationTime",
              "type": "uint256"
            }
          ],
          "internalType": "struct YourCollectible.NftItem",
          "name": "",
          "type": "tuple"
        }
      ],
      "stateMutability": "view",
      "type": "function"
    },
    {
      "inputs": [],
      "name": "getOngoingAuctions",
      "outputs": [
        {
          "components": [
            {
              "internalType": "uint256",
              "name": "tokenId",
              "type": "uint256"
            },
            {
              "internalType": "address payable",
              "name": "seller",
              "type": "address"
            },
            {
              "internalType": "uint256",
              "name": "startingBid",
              "type": "uint256"
            },
            {
              "internalType": "uint256",
              "name": "currentBid",
              "type": "uint256"
            },
            {
              "internalType": "address payable",
              "name": "highestBidder",
              "type": "address"
            },
            {
              "internalType": "uint256",
              "name": "endTime",
              "type": "uint256"
            },
            {
              "internalType": "bool",
              "name": "isActive",
              "type": "bool"
            }
          ],
          "internalType": "struct YourCollectible.Auction[]",
          "name": "",
          "type": "tuple[]"
        }
      ],
      "stateMutability": "view",
      "type": "function"
    },
    {
      "inputs": [
        {
          "internalType": "uint256",
          "name": "tokenId",
          "type": "uint256"
        }
      ],
      "name": "getTradeHistory",
      "outputs": [
        {
          "components": [
            {
              "internalType": "address",
              "name": "from",
              "type": "address"
            },
            {
              "internalType": "address",
              "name": "to",
              "type": "address"
            },
            {
              "internalType": "uint256",
              "name": "price",
              "type": "uint256"
            },
            {
              "internalType": "uint256",
              "name": "royalty",
              "type": "uint256"
            },
            {
              "internalType": "uint256",
              "name": "timestamp",
              "type": "uint256"
            }
          ],
          "internalType": "struct YourCollectible.TradeHistory[]",
          "name": "",
          "type": "tuple[]"
        }
      ],
      "stateMutability": "view",
      "type": "function"
    },
    {
      "inputs": [
        {
          "internalType": "address",
          "name": "owner",
          "type": "address"
        },
        {
          "internalType": "address",
          "name": "operator",
          "type": "address"
        }
      ],
      "name": "isApprovedForAll",
      "outputs": [
        {
          "internalType": "bool",
          "name": "",
          "type": "bool"
        }
      ],
      "stateMutability": "view",
      "type": "function"
    },
    {
      "inputs": [],
      "name": "listingFeePercentage",
      "outputs": [
        {
          "internalType": "uint256",
          "name": "",
          "type": "uint256"
        }
      ],
      "stateMutability": "view",
      "type": "function"
    },
    {
      "inputs": [
        {
          "internalType": "address",
          "name": "to",
          "type": "address"
        },
        {
          "internalType": "string",
          "name": "uri",
          "type": "string"
        },
        {
          "internalType": "uint96",
          "name": "feeNumerator",
          "type": "uint96"
        }
      ],
      "name": "mintItem",
      "outputs": [
        {
          "internalType": "uint256",
          "name": "",
          "type": "uint256"
        }
      ],
      "stateMutability": "nonpayable",
      "type": "function"
    },
    {
      "inputs": [],
      "name": "name",
      "outputs": [
        {
          "internalType": "string",
          "name": "",
          "type": "string"
        }
      ],
      "stateMutability": "view",
      "type": "function"
    },
    {
      "inputs": [],
      "name": "owner",
      "outputs": [
        {
          "internalType": "address",
          "name": "",
          "type": "address"
        }
      ],
      "stateMutability": "view",
      "type": "function"
    },
    {
      "inputs": [
        {
          "internalType": "uint256",
          "name": "tokenId",
          "type": "uint256"
        }
      ],
      "name": "ownerOf",
      "outputs": [
        {
          "internalType": "address",
          "name": "",
          "type": "address"
        }
      ],
      "stateMutability": "view",
      "type": "function"
    },
    {
      "inputs": [
        {
          "internalType": "uint256",
          "name": "tokenId",
          "type": "uint256"
        }
      ],
      "name": "placeBid",
      "outputs": [],
      "stateMutability": "payable",
      "type": "function"
    },
    {
      "inputs": [
        {
          "internalType": "uint256",
          "name": "tokenId",
          "type": "uint256"
        },
        {
          "internalType": "uint256",
          "name": "price",
          "type": "uint256"
        },
        {
          "internalType": "uint256",
          "name": "duration",
          "type": "uint256"
        }
      ],
      "name": "placeNftOnSale",
      "outputs": [],
      "stateMutability": "nonpayable",
      "type": "function"
    },
    {
      "inputs": [
        {
          "internalType": "uint256",
          "name": "tokenId",
          "type": "uint256"
        }
      ],
      "name": "purchaseNft",
      "outputs": [],
      "stateMutability": "payable",
      "type": "function"
    },
    {
      "inputs": [],
      "name": "renounceOwnership",
      "outputs": [],
      "stateMutability": "nonpayable",
      "type": "function"
    },
    {
      "inputs": [
        {
          "internalType": "uint256",
          "name": "tokenId",
          "type": "uint256"
        },
        {
          "internalType": "uint256",
          "name": "salePrice",
          "type": "uint256"
        }
      ],
      "name": "royaltyInfo",
      "outputs": [
        {
          "internalType": "address",
          "name": "",
          "type": "address"
        },
        {
          "internalType": "uint256",
          "name": "",
          "type": "uint256"
        }
      ],
      "stateMutability": "view",
      "type": "function"
    },
    {
      "inputs": [
        {
          "internalType": "address",
          "name": "from",
          "type": "address"
        },
        {
          "internalType": "address",
          "name": "to",
          "type": "address"
        },
        {
          "internalType": "uint256",
          "name": "tokenId",
          "type": "uint256"
        }
      ],
      "name": "safeTransferFrom",
      "outputs": [],
      "stateMutability": "nonpayable",
      "type": "function"
    },
    {
      "inputs": [
        {
          "internalType": "address",
          "name": "from",
          "type": "address"
        },
        {
          "internalType": "address",
          "name": "to",
          "type": "address"
        },
        {
          "internalType": "uint256",
          "name": "tokenId",
          "type": "uint256"
        },
        {
          "internalType": "bytes",
          "name": "data",
          "type": "bytes"
        }
      ],
      "name": "safeTransferFrom",
      "outputs": [],
      "stateMutability": "nonpayable",
      "type": "function"
    },
    {
      "inputs": [
        {
          "internalType": "address",
          "name": "operator",
          "type": "address"
        },
        {
          "internalType": "bool",
          "name": "approved",
          "type": "bool"
        }
      ],
      "name": "setApprovalForAll",
      "outputs": [],
      "stateMutability": "nonpayable",
      "type": "function"
    },
    {
      "inputs": [
        {
          "internalType": "bytes4",
          "name": "interfaceId",
          "type": "bytes4"
        }
      ],
      "name": "supportsInterface",
      "outputs": [
        {
          "internalType": "bool",
          "name": "",
          "type": "bool"
        }
      ],
      "stateMutability": "view",
      "type": "function"
    },
    {
      "inputs": [],
      "name": "symbol",
      "outputs": [
        {
          "internalType": "string",
          "name": "",
          "type": "string"
        }
      ],
      "stateMutability": "view",
      "type": "function"
    },
    {
      "inputs": [
        {
          "internalType": "uint256",
          "name": "index",
          "type": "uint256"
        }
      ],
      "name": "tokenByIndex",
      "outputs": [
        {
          "internalType": "uint256",
          "name": "",
          "type": "uint256"
        }
      ],
      "stateMutability": "view",
      "type": "function"
    },
    {
      "inputs": [],
      "name": "tokenIdCounter",
      "outputs": [
        {
          "internalType": "uint256",
          "name": "_value",
          "type": "uint256"
        }
      ],
      "stateMutability": "view",
      "type": "function"
    },
    {
      "inputs": [
        {
          "internalType": "address",
          "name": "owner",
          "type": "address"
        },
        {
          "internalType": "uint256",
          "name": "index",
          "type": "uint256"
        }
      ],
      "name": "tokenOfOwnerByIndex",
      "outputs": [
        {
          "internalType": "uint256",
          "name": "",
          "type": "uint256"
        }
      ],
      "stateMutability": "view",
      "type": "function"
    },
    {
      "inputs": [
        {
          "internalType": "uint256",
          "name": "tokenId",
          "type": "uint256"
        }
      ],
      "name": "tokenURI",
      "outputs": [
        {
          "internalType": "string",
          "name": "",
          "type": "string"
        }
      ],
      "stateMutability": "view",
      "type": "function"
    },
    {
      "inputs": [],
      "name": "totalFeesCollected",
      "outputs": [
        {
          "internalType": "uint256",
          "name": "",
          "type": "uint256"
        }
      ],
      "stateMutability": "view",
      "type": "function"
    },
    {
      "inputs": [],
      "name": "totalSupply",
      "outputs": [
        {
          "internalType": "uint256",
          "name": "",
          "type": "uint256"
        }
      ],
      "stateMutability": "view",
      "type": "function"
    },
    {
      "inputs": [
        {
          "internalType": "address",
          "name": "from",
          "type": "address"
        },
        {
          "internalType": "address",
          "name": "to",
          "type": "address"
        },
        {
          "internalType": "uint256",
          "name": "tokenId",
          "type": "uint256"
        }
      ],
      "name": "transferFrom",
      "outputs": [],
      "stateMutability": "nonpayable",
      "type": "function"
    },
    {
      "inputs": [
        {
          "internalType": "address",
          "name": "newOwner",
          "type": "address"
        }
      ],
      "name": "transferOwnership",
      "outputs": [],
      "stateMutability": "nonpayable",
      "type": "function"
    },
    {
      "inputs": [
        {
          "internalType": "uint256",
          "name": "tokenId",
          "type": "uint256"
        }
      ],
      "name": "unlistNft",
      "outputs": [],
      "stateMutability": "nonpayable",
      "type": "function"
    },
    {
      "inputs": [
        {
          "internalType": "uint256",
          "name": "newListingFeePercentage",
          "type": "uint256"
        }
      ],
      "name": "updateListingFeePercentage",
      "outputs": [],
      "stateMutability": "nonpayable",
      "type": "function"
    },
    {
      "inputs": [],
      "name": "withdrawFees",
      "outputs": [],
      "stateMutability": "nonpayable",
      "type": "function"
    }
  ],
  "transactionHash": "0xb7ad9356024eb057e06db2668f6319c81d41e401aa6ac54ed41910eb8a597fa6",
  "args": [],
  "numDeployments": 1,
  "solcInputHash": "a0a2450169a176536d0b06a544d73fed",
  "bytecode": "0x608060405260fa6017553480156200001657600080fd5b506040518060400160405280600f81526020016e596f7572436f6c6c65637469626c6560881b8152506040518060400160405280600381526020016205a4a560ec1b81525081600290816200006c91906200019e565b5060036200007b82826200019e565b5050506200009862000092620000a360201b60201c565b620000a7565b6001600e556200026a565b3390565b600d80546001600160a01b038381166001600160a01b0319831681179093556040519116919082907f8be0079c531659141344cd1fd0a4f28419497f9722a3daafe3b4186f6b6457e090600090a35050565b634e487b7160e01b600052604160045260246000fd5b600181811c908216806200012457607f821691505b6020821081036200014557634e487b7160e01b600052602260045260246000fd5b50919050565b601f8211156200019957600081815260208120601f850160051c81016020861015620001745750805b601f850160051c820191505b81811015620001955782815560010162000180565b5050505b505050565b81516001600160401b03811115620001ba57620001ba620000f9565b620001d281620001cb84546200010f565b846200014b565b602080601f8311600181146200020a5760008415620001f15750858301515b600019600386901b1c1916600185901b17855562000195565b600085815260208120601f198616915b828110156200023b578886015182559484019460019091019084016200021a565b50858210156200025a5787850151600019600388901b60f8161c191681555b5050505050600190811b01905550565b613cfd806200027a6000396000f3fe6080604052600436106102305760003560e01c8063873c5e601161012e578063b88d4fde116100ab578063cda4beef1161006f578063cda4beef146106a5578063da4e364f146106c5578063deb82ed9146106f5578063e985e9c51461070b578063f2fde38b1461075457600080fd5b8063b88d4fde146105ec578063b9a2de3a1461060c578063bfd3e4ba1461062c578063c750cb791461064c578063c87b56dd1461068557600080fd5b80639979ef45116100f25780639979ef45146105645780639d024a7f146105775780639e75689c14610599578063a22cb465146105b9578063a2e66bfc146105d957600080fd5b8063873c5e60146104cb5780638da5cb5b146104f857806395ce4a3b1461051657806395d89b411461053857806398bdf6f51461054d57600080fd5b80632f745c59116101bc57806360c6d8ae1161018057806360c6d8ae146104335780636352211e146104495780636f1a0af51461046957806370a0823114610496578063715018a6146104b657600080fd5b80632f745c591461039e5780633877248d146103be57806342842e0e146103de578063476343ee146103fe5780634f6ccce71461041357600080fd5b80630888de39116102035780630888de39146102e6578063095ea7b31461030a57806318160ddd1461032a57806323b872dd1461033f5780632a55205a1461035f57600080fd5b806301bb8cc51461023557806301ffc9a71461025757806306fdde031461028c578063081812fc146102ae575b600080fd5b34801561024157600080fd5b506102556102503660046133c5565b610774565b005b34801561026357600080fd5b506102776102723660046133f4565b61080e565b60405190151581526020015b60405180910390f35b34801561029857600080fd5b506102a161081f565b6040516102839190613461565b3480156102ba57600080fd5b506102ce6102c93660046133c5565b6108b1565b6040516001600160a01b039091168152602001610283565b3480156102f257600080fd5b506102fc60175481565b604051908152602001610283565b34801561031657600080fd5b50610255610325366004613490565b6108d8565b34801561033657600080fd5b50600a546102fc565b34801561034b57600080fd5b5061025561035a3660046134ba565b6109ed565b34801561036b57600080fd5b5061037f61037a3660046134f6565b610a1e565b604080516001600160a01b039093168352602083019190915201610283565b3480156103aa57600080fd5b506102fc6103b9366004613490565b610aca565b3480156103ca57600080fd5b506102fc6103d93660046135a4565b610b60565b3480156103ea57600080fd5b506102556103f93660046134ba565b610cd7565b34801561040a57600080fd5b50610255610cf2565b34801561041f57600080fd5b506102fc61042e3660046133c5565b610d99565b34801561043f57600080fd5b506102fc60105481565b34801561045557600080fd5b506102ce6104643660046133c5565b610e2c565b34801561047557600080fd5b506104896104843660046133c5565b610e8c565b6040516102839190613681565b3480156104a257600080fd5b506102fc6104b1366004613694565b610f91565b3480156104c257600080fd5b50610255611017565b3480156104d757600080fd5b506104eb6104e63660046133c5565b61102b565b60405161028391906136af565b34801561050457600080fd5b50600d546001600160a01b03166102ce565b34801561052257600080fd5b5061052b6110d7565b6040516102839190613729565b34801561054457600080fd5b506102a16112d1565b34801561055957600080fd5b50600f546102fc9081565b6102556105723660046133c5565b6112e0565b34801561058357600080fd5b5061058c61148e565b604051610283919061378b565b3480156105a557600080fd5b506102556105b43660046133c5565b6116be565b3480156105c557600080fd5b506102556105d4366004613810565b6117d6565b6102556105e73660046133c5565b6117e5565b3480156105f857600080fd5b5061025561060736600461384c565b611b55565b34801561061857600080fd5b506102556106273660046133c5565b611b8d565b34801561063857600080fd5b506102556106473660046138c8565b611d6f565b34801561065857600080fd5b506102ce6106673660046133c5565b6000908152601260205260409020600401546001600160a01b031690565b34801561069157600080fd5b506102a16106a03660046133c5565b611f6d565b3480156106b157600080fd5b506102556106c03660046138c8565b611f78565b3480156106d157600080fd5b506102fc6106e03660046133c5565b60009081526012602052604090206003015490565b34801561070157600080fd5b506102fc6103e881565b34801561071757600080fd5b506102776107263660046138f4565b6001600160a01b03918216600090815260076020908152604080832093909416825291909152205460ff1690565b34801561076057600080fd5b5061025561076f366004613694565b612223565b61077c612299565b6103e88111156107d35760405162461bcd60e51b815260206004820152601760248201527f4c697374696e672066656520697320746f6f206869676800000000000000000060448201526064015b60405180910390fd5b60178190556040518181527f7b7b531d40c1aa89dac7360f225e5660c63799638af64655583d3ec191be11e29060200160405180910390a150565b6000610819826122f3565b92915050565b60606002805461082e90613927565b80601f016020809104026020016040519081016040528092919081815260200182805461085a90613927565b80156108a75780601f1061087c576101008083540402835291602001916108a7565b820191906000526020600020905b81548152906001019060200180831161088a57829003601f168201915b5050505050905090565b60006108bc826122fe565b506000908152600660205260409020546001600160a01b031690565b60006108e382610e2c565b9050806001600160a01b0316836001600160a01b0316036109505760405162461bcd60e51b815260206004820152602160248201527f4552433732313a20617070726f76616c20746f2063757272656e74206f776e656044820152603960f91b60648201526084016107ca565b336001600160a01b038216148061096c575061096c8133610726565b6109de5760405162461bcd60e51b815260206004820152603d60248201527f4552433732313a20617070726f76652063616c6c6572206973206e6f7420746f60448201527f6b656e206f776e6572206f7220617070726f76656420666f7220616c6c00000060648201526084016107ca565b6109e8838361235d565b505050565b6109f733826123cb565b610a135760405162461bcd60e51b81526004016107ca90613961565b6109e883838361244a565b60008281526001602090815260408083208151808301909252546001600160a01b038116808352600160a01b9091046001600160601b0316928201929092528291610a935750604080518082019091526000546001600160a01b0381168252600160a01b90046001600160601b031660208201525b602081015160009061271090610ab2906001600160601b0316876139c4565b610abc91906139db565b915196919550909350505050565b6000610ad583610f91565b8210610b375760405162461bcd60e51b815260206004820152602b60248201527f455243373231456e756d657261626c653a206f776e657220696e646578206f7560448201526a74206f6620626f756e647360a81b60648201526084016107ca565b506001600160a01b03919091166000908152600860209081526040808320938352929052205490565b6000610b70600f80546001019055565b6000610b7b600f5490565b9050610b8785826125bb565b610b9181856125d5565b610b9c8133856126a0565b6040516001600160601b0384168152339082907f93c3d3c02f3e5b8ff28a98e2ff5dc3d9395f4f02af3a830c3789c8af254202539060200160405180910390a36000610be66127ae565b85604051602001610bf89291906139fd565b60408051601f1981840301815260c08301825284835260006020848101828152858501838152606087018481526080880186815260a089018690528a86526011909452959093208651815590516001820155915160028301805495511515600160a01b026001600160a81b03199096166001600160a01b0392909216919091179490941790935591519093506003820190610c939082613a7a565b5060a0919091015160049091015560405160009083907f53f405bfea4b68c2f9cbb58bece507b3a7621257eb0c9735ee0626574e5b1488908390a350949350505050565b6109e883838360405180602001604052806000815250611b55565b610cfa612299565b601080546000909155600d546001600160a01b03166001600160a01b03166108fc829081150290604051600060405180830381858888f19350505050158015610d47573d6000803e3d6000fd5b50600d546001600160a01b03166001600160a01b03167fc0819c13be868895eb93e40eaceb96de976442fa1d404e5c55f14bb65a8c489a82604051610d8e91815260200190565b60405180910390a250565b6000610da4600a5490565b8210610e075760405162461bcd60e51b815260206004820152602c60248201527f455243373231456e756d657261626c653a20676c6f62616c20696e646578206f60448201526b7574206f6620626f756e647360a01b60648201526084016107ca565b600a8281548110610e1a57610e1a613b3a565b90600052602060002001549050919050565b6000818152600460205260408120546001600160a01b0316806108195760405162461bcd60e51b8152602060048201526018602482015277115490cdcc8c4e881a5b9d985b1a59081d1bdad95b88125160421b60448201526064016107ca565b610e94613384565b600082815260116020908152604091829020825160c0810184528154815260018201549281019290925260028101546001600160a01b03811693830193909352600160a01b90920460ff1615156060820152600382018054919291608084019190610efe90613927565b80601f0160208091040260200160405190810160405280929190818152602001828054610f2a90613927565b8015610f775780601f10610f4c57610100808354040283529160200191610f77565b820191906000526020600020905b815481529060010190602001808311610f5a57829003601f168201915b505050505081526020016004820154815250509050919050565b60006001600160a01b038216610ffb5760405162461bcd60e51b815260206004820152602960248201527f4552433732313a2061646472657373207a65726f206973206e6f7420612076616044820152683634b21037bbb732b960b91b60648201526084016107ca565b506001600160a01b031660009081526005602052604090205490565b61101f612299565b61102960006127ce565b565b606060186000838152602001908152602001600020805480602002602001604051908101604052809291908181526020016000905b828210156110cc5760008481526020908190206040805160a0810182526005860290920180546001600160a01b03908116845260018083015490911684860152600282015492840192909252600381015460608401526004015460808301529083529092019101611060565b505050509050919050565b60155460609060008167ffffffffffffffff8111156110f8576110f8613518565b60405190808252806020026020018201604052801561113157816020015b61111e613384565b8152602001906001900390816111165790505b5090506000805b838110156112c85760006015828154811061115557611155613b3a565b60009182526020808320909101548083526011909152604090912060028101549192509060ff600160a01b9091041680156111a05750600481015415806111a0575080600401544211155b156112b3576040805160c081018252825481526001830154602082015260028301546001600160a01b03811692820192909252600160a01b90910460ff1615156060820152600382018054839160808401916111fb90613927565b80601f016020809104026020016040519081016040528092919081815260200182805461122790613927565b80156112745780601f1061124957610100808354040283529160200191611274565b820191906000526020600020905b81548152906001019060200180831161125757829003601f168201915b5050505050815260200160048201548152505085858151811061129957611299613b3a565b602002602001018190525083806112af90613b50565b9450505b505080806112c090613b50565b915050611138565b50815292915050565b60606003805461082e90613927565b6000818152601260205260409020600681015460ff1661133a5760405162461bcd60e51b815260206004820152601560248201527441756374696f6e206973206e6f742061637469766560581b60448201526064016107ca565b806005015442106113815760405162461bcd60e51b8152602060048201526011602482015270105d58dd1a5bdb881a185cc8195b991959607a1b60448201526064016107ca565b806003015434116113e05760405162461bcd60e51b815260206004820152602360248201527f426964206d75737420626520686967686572207468616e2063757272656e7420604482015262189a5960ea1b60648201526084016107ca565b60048101546001600160a01b03161561143557600481015460038201546040516001600160a01b039092169181156108fc0291906000818181858888f19350505050158015611433573d6000803e3d6000fd5b505b34600382018190556004820180546001600160a01b031916339081179091556040519182529083907f0e54eff26401bf69b81b26f60bd85ef47f5d85275c1d268d84f68d6897431c479060200160405180910390a35050565b60606000805b601354811015611511576000601382815481106114b3576114b3613b3a565b60009182526020808320909101548083526012909152604090912060068101549192509060ff1680156114e95750806005015442105b156114fc57836114f881613b50565b9450505b5050808061150990613b50565b915050611494565b5060008167ffffffffffffffff81111561152d5761152d613518565b6040519080825280602002602001820160405280156115b257816020015b61159f6040518060e001604052806000815260200160006001600160a01b03168152602001600081526020016000815260200160006001600160a01b03168152602001600081526020016000151581525090565b81526020019060019003908161154b5790505b5090506000805b6013548110156116b5576000601382815481106115d8576115d8613b3a565b60009182526020808320909101548083526012909152604090912060068101549192509060ff16801561160e5750806005015442105b156116a0576040805160e0810182528254815260018301546001600160a01b0390811660208301526002840154928201929092526003830154606082015260048301549091166080820152600582015460a0820152600682015460ff16151560c0820152855186908690811061168657611686613b3a565b6020026020010181905250838061169c90613b50565b9450505b505080806116ad90613b50565b9150506115b9565b50909392505050565b336116c882610e2c565b6001600160a01b0316146117285760405162461bcd60e51b815260206004820152602160248201527f4f6e6c7920746865206f776e65722063616e20756e6c69737420746865204e466044820152601560fa1b60648201526084016107ca565b600081815260116020526040902060020154600160a01b900460ff166117845760405162461bcd60e51b8152602060048201526011602482015270139195081a5cc81b9bdd081b1a5cdd1959607a1b60448201526064016107ca565b61178d81612820565b600081815260116020526040808220600201805460ff60a01b1916905551339183917f53f405bfea4b68c2f9cbb58bece507b3a7621257eb0c9735ee0626574e5b14889190a350565b6117e1338383612901565b5050565b6117ed6129cf565b60008181526011602052604090206002810154600160a01b900460ff166118565760405162461bcd60e51b815260206004820152601a60248201527f4e4654206973206e6f74206c697374656420666f722073616c6500000000000060448201526064016107ca565b80600101543410156118a15760405162461bcd60e51b8152602060048201526014602482015273125b9cdd59999a58da595b9d081c185e5b595b9d60621b60448201526064016107ca565b6002810154600160a01b900460ff166118fc5760405162461bcd60e51b815260206004820152601a60248201527f4e4654206973206e6f74206c697374656420666f722073616c6500000000000060448201526064016107ca565b6004810154158015906119125750806004015442115b156119775761192082612820565b60028101805460ff60a01b1916905560405162461bcd60e51b815260206004820152601760248201527f4e4654206c697374696e6720686173206578706972656400000000000000000060448201526064016107ca565b60028101546001600160a01b031661198e83612820565b60028201805460ff60a01b191690556000806119aa8534610a1e565b915091506000612710601754346119c191906139c4565b6119cb91906139db565b905080601060008282546119df9190613b69565b90915550506001600160a01b0384166108fc836119fc8434613b7c565b611a069190613b7c565b6040518115909202916000818181858888f19350505050158015611a2e573d6000803e3d6000fd5b506040516001600160a01b0384169083156108fc029084906000818181858888f19350505050158015611a65573d6000803e3d6000fd5b50611a7184338861244a565b6000868152601860209081526040808320815160a0810183526001600160a01b0389811682523382860181815234848701818152606086018c81524260808801908152885460018082018b55998d529b8b902097516005909c0290970180549b87166001600160a01b03199c8d16178155935197840180549890961697909a169690961790935593516002850155955160038401559051600490920191909155905190815288917fd1861454b25e248ff1d0dcdafe053c022db01d05d6aa9fd5ab4449bc951fce4d910160405180910390a35050505050611b526001600e55565b50565b611b5f33836123cb565b611b7b5760405162461bcd60e51b81526004016107ca90613961565b611b8784848484612a28565b50505050565b611b956129cf565b6000818152601260205260409020600681015460ff16611bf75760405162461bcd60e51b815260206004820152601960248201527f41756374696f6e2068617320616c726561647920656e6465640000000000000060448201526064016107ca565b60068101805460ff1916905560048101546001600160a01b031615611d2b5760018101546004820154611c37916001600160a01b0390811691168461244a565b600381015460018201546040516000916001600160a01b03169083908381818185875af1925050503d8060008114611c8b576040519150601f19603f3d011682016040523d82523d6000602084013e611c90565b606091505b5050905080611cd95760405162461bcd60e51b815260206004820152601560248201527414d95b1b195c881c185e5b595b9d0819985a5b1959605a1b60448201526064016107ca565b600483015460038401546040519081526001600160a01b039091169085907fd2aa34a4fdbbc6dff6a3e56f46e0f3ae2a31d7785ff3487aa5c95c642acea5019060200160405180910390a35050611d64565b60405160008082529083907fd2aa34a4fdbbc6dff6a3e56f46e0f3ae2a31d7785ff3487aa5c95c642acea5019060200160405180910390a35b50611b526001600e55565b33611d7984610e2c565b6001600160a01b031614611dcf5760405162461bcd60e51b815260206004820152601f60248201527f4f6e6c7920746865206f776e65722063616e206c69737420746865204e46540060448201526064016107ca565b600083815260116020526040902060020154600160a01b900460ff1615611e305760405162461bcd60e51b8152602060048201526015602482015274139195081a5cc8185b1c9958591e481b1a5cdd1959605a1b60448201526064016107ca565b60008211611e805760405162461bcd60e51b815260206004820152601f60248201527f5072696365206d7573742062652067726561746572207468616e207a65726f0060448201526064016107ca565b60008115611e9757611e928242613b69565b611e9a565b60005b6000858152601160205260408120600180820187905560028201805460ff60a01b1933166001600160a81b031990911617600160a01b1790556004909101839055601580548083018255928190527f55f448fdea98c4d29eb340757ef0a66cd03dbb9538908a6a81d96026b71ec4759092018790559054919250611f1d91613b7c565b6000858152601660209081526040918290209290925551848152339186917f6decc0edd62bc66dd462d841e96d5888ee2452307a8352b9bd66e442d6a23ee091015b60405180910390a350505050565b606061081982612a5b565b33611f8284610e2c565b6001600160a01b031614611fe45760405162461bcd60e51b8152602060048201526024808201527f4f6e6c7920746865206f776e65722063616e2063726561746520616e206175636044820152633a34b7b760e11b60648201526084016107ca565b60008381526012602052604090206006015460ff16156120465760405162461bcd60e51b815260206004820152601960248201527f41756374696f6e20697320616c7265616479206163746976650000000000000060448201526064016107ca565b600082116120a55760405162461bcd60e51b815260206004820152602660248201527f5374617274696e6720626964206d7573742062652067726561746572207468616044820152656e207a65726f60d01b60648201526084016107ca565b60006120b18242613b69565b90506040518060e00160405280858152602001336001600160a01b031681526020018481526020016000815260200160006001600160a01b0316815260200182815260200160011515815250601260008681526020019081526020016000206000820151816000015560208201518160010160006101000a8154816001600160a01b0302191690836001600160a01b03160217905550604082015181600201556060820151816003015560808201518160040160006101000a8154816001600160a01b0302191690836001600160a01b0316021790555060a0820151816005015560c08201518160060160006101000a81548160ff0219169083151502179055509050506013849080600181540180825580915050600190039060005260206000200160009091909190915055336001600160a01b0316847fc9050d42180a61cb0d9ebb8ad118b62fe6eab12cf12ff752c4a0cc7da9ddf6278584604051611f5f929190918252602082015260400190565b61222b612299565b6001600160a01b0381166122905760405162461bcd60e51b815260206004820152602660248201527f4f776e61626c653a206e6577206f776e657220697320746865207a65726f206160448201526564647265737360d01b60648201526084016107ca565b611b52816127ce565b600d546001600160a01b031633146110295760405162461bcd60e51b815260206004820181905260248201527f4f776e61626c653a2063616c6c6572206973206e6f7420746865206f776e657260448201526064016107ca565b600061081982612b56565b6000818152600460205260409020546001600160a01b0316611b525760405162461bcd60e51b8152602060048201526018602482015277115490cdcc8c4e881a5b9d985b1a59081d1bdad95b88125160421b60448201526064016107ca565b600081815260066020526040902080546001600160a01b0319166001600160a01b038416908117909155819061239282610e2c565b6001600160a01b03167f8c5be1e5ebec7d5bd14f71427d1e84f3dd0314c0f7b2291e5b200ac8c7c3b92560405160405180910390a45050565b6000806123d783610e2c565b9050806001600160a01b0316846001600160a01b0316148061241e57506001600160a01b0380821660009081526007602090815260408083209388168352929052205460ff165b806124425750836001600160a01b0316612437846108b1565b6001600160a01b0316145b949350505050565b826001600160a01b031661245d82610e2c565b6001600160a01b0316146124835760405162461bcd60e51b81526004016107ca90613b8f565b6001600160a01b0382166124e55760405162461bcd60e51b8152602060048201526024808201527f4552433732313a207472616e7366657220746f20746865207a65726f206164646044820152637265737360e01b60648201526084016107ca565b6124f28383836001612b7b565b826001600160a01b031661250582610e2c565b6001600160a01b03161461252b5760405162461bcd60e51b81526004016107ca90613b8f565b600081815260066020908152604080832080546001600160a01b03199081169091556001600160a01b0387811680865260058552838620805460001901905590871680865283862080546001019055868652600490945282852080549092168417909155905184937fddf252ad1be2c89b69c2b068fc378daa952ba7f163c4a11628f55a4df523b3ef91a4505050565b6117e1828260405180602001604052806000815250612b87565b6000828152600460205260409020546001600160a01b03166126505760405162461bcd60e51b815260206004820152602e60248201527f45524337323155524953746f726167653a2055524920736574206f66206e6f6e60448201526d32bc34b9ba32b73a103a37b5b2b760911b60648201526084016107ca565b6000828152600c602052604090206126688282613a7a565b506040518281527ff8e1a15aba9398e019f0b49df1a4fde98ee17ae345cb5f6b5e2c27f5033e8ce79060200160405180910390a15050565b6127106001600160601b038216111561270e5760405162461bcd60e51b815260206004820152602a60248201527f455243323938313a20726f79616c7479206665652077696c6c206578636565646044820152692073616c65507269636560b01b60648201526084016107ca565b6001600160a01b0382166127645760405162461bcd60e51b815260206004820152601b60248201527f455243323938313a20496e76616c696420706172616d6574657273000000000060448201526064016107ca565b6040805180820182526001600160a01b0393841681526001600160601b0392831660208083019182526000968752600190529190942093519051909116600160a01b029116179055565b6060604051806060016040528060318152602001613c9760319139905090565b600d80546001600160a01b038381166001600160a01b0319831681179093556040519116919082907f8be0079c531659141344cd1fd0a4f28419497f9722a3daafe3b4186f6b6457e090600090a35050565b6015546128625760405162461bcd60e51b815260206004820152601060248201526f139bc81d1bdad95b9cc81b1a5cdd195960821b60448201526064016107ca565b6000818152601660205260408120546015805491929161288490600190613b7c565b8154811061289457612894613b3a565b9060005260206000200154905080601583815481106128b5576128b5613b3a565b600091825260208083209091019290925582815260169091526040902082905560158054806128e6576128e6613bd4565b60019003818190600052602060002001600090559055505050565b816001600160a01b0316836001600160a01b0316036129625760405162461bcd60e51b815260206004820152601960248201527f4552433732313a20617070726f766520746f2063616c6c65720000000000000060448201526064016107ca565b6001600160a01b03838116600081815260076020908152604080832094871680845294825291829020805460ff191686151590811790915591519182527f17307eab39ab6107e8899845ad3d59bd9653f200f220920489ca2b5937696c31910160405180910390a3505050565b6002600e5403612a215760405162461bcd60e51b815260206004820152601f60248201527f5265656e7472616e637947756172643a207265656e7472616e742063616c6c0060448201526064016107ca565b6002600e55565b612a3384848461244a565b612a3f84848484612bba565b611b875760405162461bcd60e51b81526004016107ca90613bea565b6060612a66826122fe565b6000828152600c602052604081208054612a7f90613927565b80601f0160208091040260200160405190810160405280929190818152602001828054612aab90613927565b8015612af85780601f10612acd57610100808354040283529160200191612af8565b820191906000526020600020905b815481529060010190602001808311612adb57829003601f168201915b505050505090506000612b096127ae565b90508051600003612b1b575092915050565b815115612b4d578082604051602001612b359291906139fd565b60405160208183030381529060405292505050919050565b61244284612cbb565b60006001600160e01b03198216632483248360e11b1480610819575061081982612d22565b611b8784848484612d47565b612b918383612e7b565b612b9e6000848484612bba565b6109e85760405162461bcd60e51b81526004016107ca90613bea565b60006001600160a01b0384163b15612cb057604051630a85bd0160e11b81526001600160a01b0385169063150b7a0290612bfe903390899088908890600401613c3c565b6020604051808303816000875af1925050508015612c39575060408051601f3d908101601f19168201909252612c3691810190613c79565b60015b612c96573d808015612c67576040519150601f19603f3d011682016040523d82523d6000602084013e612c6c565b606091505b508051600003612c8e5760405162461bcd60e51b81526004016107ca90613bea565b805181602001fd5b6001600160e01b031916630a85bd0160e11b149050612442565b506001949350505050565b6060612cc6826122fe565b6000612cd06127ae565b90506000815111612cf05760405180602001604052806000815250612d1b565b80612cfa84613014565b604051602001612d0b9291906139fd565b6040516020818303038152906040525b9392505050565b60006001600160e01b0319821663780e9d6360e01b14806108195750610819826130a7565b6001811115612db65760405162461bcd60e51b815260206004820152603560248201527f455243373231456e756d657261626c653a20636f6e7365637574697665207472604482015274185b9cd9995c9cc81b9bdd081cdd5c1c1bdc9d1959605a1b60648201526084016107ca565b816001600160a01b038516612e1257612e0d81600a80546000838152600b60205260408120829055600182018355919091527fc65a7bb8d6351c1cf70c95a316cc6a92839c986682d98bc35f958f4883f9d2a80155565b612e35565b836001600160a01b0316856001600160a01b031614612e3557612e3585826130e7565b6001600160a01b038416612e5157612e4c81613184565b612e74565b846001600160a01b0316846001600160a01b031614612e7457612e748482613233565b5050505050565b6001600160a01b038216612ed15760405162461bcd60e51b815260206004820181905260248201527f4552433732313a206d696e7420746f20746865207a65726f206164647265737360448201526064016107ca565b6000818152600460205260409020546001600160a01b031615612f365760405162461bcd60e51b815260206004820152601c60248201527f4552433732313a20746f6b656e20616c7265616479206d696e7465640000000060448201526064016107ca565b612f44600083836001612b7b565b6000818152600460205260409020546001600160a01b031615612fa95760405162461bcd60e51b815260206004820152601c60248201527f4552433732313a20746f6b656e20616c7265616479206d696e7465640000000060448201526064016107ca565b6001600160a01b038216600081815260056020908152604080832080546001019055848352600490915280822080546001600160a01b0319168417905551839291907fddf252ad1be2c89b69c2b068fc378daa952ba7f163c4a11628f55a4df523b3ef908290a45050565b6060600061302183613277565b600101905060008167ffffffffffffffff81111561304157613041613518565b6040519080825280601f01601f19166020018201604052801561306b576020820181803683370190505b5090508181016020015b600019016f181899199a1a9b1b9c1cb0b131b232b360811b600a86061a8153600a850494508461307557509392505050565b60006001600160e01b031982166380ac58cd60e01b14806130d857506001600160e01b03198216635b5e139f60e01b145b8061081957506108198261334f565b600060016130f484610f91565b6130fe9190613b7c565b600083815260096020526040902054909150808214613151576001600160a01b03841660009081526008602090815260408083208584528252808320548484528184208190558352600990915290208190555b5060009182526009602090815260408084208490556001600160a01b039094168352600881528383209183525290812055565b600a5460009061319690600190613b7c565b6000838152600b6020526040812054600a80549394509092849081106131be576131be613b3a565b9060005260206000200154905080600a83815481106131df576131df613b3a565b6000918252602080832090910192909255828152600b9091526040808220849055858252812055600a80548061321757613217613bd4565b6001900381819060005260206000200160009055905550505050565b600061323e83610f91565b6001600160a01b039093166000908152600860209081526040808320868452825280832085905593825260099052919091209190915550565b60008072184f03e93ff9f4daa797ed6e38ed64bf6a1f0160401b83106132b65772184f03e93ff9f4daa797ed6e38ed64bf6a1f0160401b830492506040015b6d04ee2d6d415b85acef810000000083106132e2576d04ee2d6d415b85acef8100000000830492506020015b662386f26fc10000831061330057662386f26fc10000830492506010015b6305f5e1008310613318576305f5e100830492506008015b612710831061332c57612710830492506004015b6064831061333e576064830492506002015b600a83106108195760010192915050565b60006001600160e01b0319821663152a902d60e11b148061081957506301ffc9a760e01b6001600160e01b0319831614610819565b6040518060c00160405280600081526020016000815260200160006001600160a01b0316815260200160001515815260200160608152602001600081525090565b6000602082840312156133d757600080fd5b5035919050565b6001600160e01b031981168114611b5257600080fd5b60006020828403121561340657600080fd5b8135612d1b816133de565b60005b8381101561342c578181015183820152602001613414565b50506000910152565b6000815180845261344d816020860160208601613411565b601f01601f19169290920160200192915050565b602081526000612d1b6020830184613435565b80356001600160a01b038116811461348b57600080fd5b919050565b600080604083850312156134a357600080fd5b6134ac83613474565b946020939093013593505050565b6000806000606084860312156134cf57600080fd5b6134d884613474565b92506134e660208501613474565b9150604084013590509250925092565b6000806040838503121561350957600080fd5b50508035926020909101359150565b634e487b7160e01b600052604160045260246000fd5b600067ffffffffffffffff8084111561354957613549613518565b604051601f8501601f19908116603f0116810190828211818310171561357157613571613518565b8160405280935085815286868601111561358a57600080fd5b858560208301376000602087830101525050509392505050565b6000806000606084860312156135b957600080fd5b6135c284613474565b9250602084013567ffffffffffffffff8111156135de57600080fd5b8401601f810186136135ef57600080fd5b6135fe8682356020840161352e565b92505060408401356001600160601b038116811461361b57600080fd5b809150509250925092565b805182526020810151602083015260018060a01b0360408201511660408301526060810151151560608301526000608082015160c0608085015261366d60c0850182613435565b60a093840151949093019390935250919050565b602081526000612d1b6020830184613626565b6000602082840312156136a657600080fd5b612d1b82613474565b602080825282518282018190526000919060409081850190868401855b8281101561371c57815180516001600160a01b0390811686528782015116878601528581015186860152606080820151908601526080908101519085015260a090930192908501906001016136cc565b5091979650505050505050565b6000602080830181845280855180835260408601915060408160051b870101925083870160005b8281101561377e57603f1988860301845261376c858351613626565b94509285019290850190600101613750565b5092979650505050505050565b602080825282518282018190526000919060409081850190868401855b8281101561371c57815180518552868101516001600160a01b03908116888701528682015187870152606080830151908701526080808301519091169086015260a0808201519086015260c09081015115159085015260e090930192908501906001016137a8565b6000806040838503121561382357600080fd5b61382c83613474565b91506020830135801515811461384157600080fd5b809150509250929050565b6000806000806080858703121561386257600080fd5b61386b85613474565b935061387960208601613474565b925060408501359150606085013567ffffffffffffffff81111561389c57600080fd5b8501601f810187136138ad57600080fd5b6138bc8782356020840161352e565b91505092959194509250565b6000806000606084860312156138dd57600080fd5b505081359360208301359350604090920135919050565b6000806040838503121561390757600080fd5b61391083613474565b915061391e60208401613474565b90509250929050565b600181811c9082168061393b57607f821691505b60208210810361395b57634e487b7160e01b600052602260045260246000fd5b50919050565b6020808252602d908201527f4552433732313a2063616c6c6572206973206e6f7420746f6b656e206f776e6560408201526c1c881bdc88185c1c1c9bdd9959609a1b606082015260800190565b634e487b7160e01b600052601160045260246000fd5b8082028115828204841417610819576108196139ae565b6000826139f857634e487b7160e01b600052601260045260246000fd5b500490565b60008351613a0f818460208801613411565b835190830190613a23818360208801613411565b01949350505050565b601f8211156109e857600081815260208120601f850160051c81016020861015613a535750805b601f850160051c820191505b81811015613a7257828155600101613a5f565b505050505050565b815167ffffffffffffffff811115613a9457613a94613518565b613aa881613aa28454613927565b84613a2c565b602080601f831160018114613add5760008415613ac55750858301515b600019600386901b1c1916600185901b178555613a72565b600085815260208120601f198616915b82811015613b0c57888601518255948401946001909101908401613aed565b5085821015613b2a5787850151600019600388901b60f8161c191681555b5050505050600190811b01905550565b634e487b7160e01b600052603260045260246000fd5b600060018201613b6257613b626139ae565b5060010190565b80820180821115610819576108196139ae565b81810381811115610819576108196139ae565b60208082526025908201527f4552433732313a207472616e736665722066726f6d20696e636f72726563742060408201526437bbb732b960d91b606082015260800190565b634e487b7160e01b600052603160045260246000fd5b60208082526032908201527f4552433732313a207472616e7366657220746f206e6f6e20455243373231526560408201527131b2b4bb32b91034b6b83632b6b2b73a32b960711b606082015260800190565b6001600160a01b0385811682528416602082015260408101839052608060608201819052600090613c6f90830184613435565b9695505050505050565b600060208284031215613c8b57600080fd5b8151612d1b816133de56fe68747470733a2f2f6c696d652d72616e646f6d2d6d6974652d3536332e6d7970696e6174612e636c6f75642f697066732fa2646970667358221220f376962bbf8138f9f947b63df3446fb9dc6c546d25f4633bbee84d897e00e8d864736f6c63430008110033",
  "devdoc": {
    "kind": "dev",
    "methods": {
      "approve(address,uint256)": {
        "details": "See {IERC721-approve}."
      },
      "balanceOf(address)": {
        "details": "See {IERC721-balanceOf}."
      },
      "createAuction(uint256,uint256,uint256)": {
        "details": "",
        "params": {
          "duration": "",
          "startingBid": "",
          "tokenId": "NFTToken ID"
        }
      },
      "endAuction(uint256)": {
        "details": "   ",
        "params": {
          "tokenId": "NFTToken ID"
        }
      },
      "getAllListedNfts()": {
        "details": "NFT",
        "returns": {
          "_0": "An array of NftItem structs"
        }
      },
      "getApproved(uint256)": {
        "details": "See {IERC721-getApproved}."
      },
      "getCurrentBid(uint256)": {
        "details": "NFT",
        "params": {
          "tokenId": "NFTToken ID"
        }
      },
      "getHighestBidder(uint256)": {
        "details": "NFT",
        "params": {
          "tokenId": "NFTToken ID"
        }
      },
      "getNftItem(uint256)": {
        "details": "NftItem",
        "params": {
          "tokenId": "NFTToken ID"
        },
        "returns": {
          "_0": "NftItem"
        }
      },
      "getTradeHistory(uint256)": {
        "details": " tokenId ",
        "params": {
          "tokenId": "NFTToken ID"
        },
        "returns": {
          "_0": "TradeHistory[] "
        }
      },
      "isApprovedForAll(address,address)": {
        "details": "See {IERC721-isApprovedForAll}."
      },
      "mintItem(address,string,uint96)": {
        "details": "NFT",
        "params": {
          "feeNumerator": "5005%",
          "to": "",
          "uri": "NFTURI"
        },
        "returns": {
          "_0": "tokenId NFTToken ID"
        }
      },
      "name()": {
        "details": "See {IERC721Metadata-name}."
      },
      "owner()": {
        "details": "Returns the address of the current owner."
      },
      "ownerOf(uint256)": {
        "details": "See {IERC721-ownerOf}."
      },
      "placeBid(uint256)": {
        "details": "",
        "params": {
          "tokenId": "NFTToken ID"
        }
      },
      "placeNftOnSale(uint256,uint256,uint256)": {
        "details": "NFT",
        "params": {
          "duration": "0 ",
          "price": "",
          "tokenId": "NFTToken ID"
        }
      },
      "purchaseNft(uint256)": {
        "details": "NFT",
        "params": {
          "tokenId": "NFTToken ID"
        }
      },
      "renounceOwnership()": {
        "details": "Leaves the contract without owner. It will not be possible to call `onlyOwner` functions. Can only be called by the current owner. NOTE: Renouncing ownership will leave the contract without an owner, thereby disabling any functionality that is only available to the owner."
      },
      "royaltyInfo(uint256,uint256)": {
        "details": "Returns how much royalty is owed and to whom, based on a sale price that may be denominated in any unit of exchange. The royalty amount is denominated and should be paid in that same unit of exchange."
      },
      "safeTransferFrom(address,address,uint256)": {
        "details": "See {IERC721-safeTransferFrom}."
      },
      "safeTransferFrom(address,address,uint256,bytes)": {
        "details": "See {IERC721-safeTransferFrom}."
      },
      "setApprovalForAll(address,bool)": {
        "details": "See {IERC721-setApprovalForAll}."
      },
      "symbol()": {
        "details": "See {IERC721Metadata-symbol}."
      },
      "tokenByIndex(uint256)": {
        "details": "See {IERC721Enumerable-tokenByIndex}."
      },
      "tokenOfOwnerByIndex(address,uint256)": {
        "details": "See {IERC721Enumerable-tokenOfOwnerByIndex}."
      },
      "totalSupply()": {
        "details": "See {IERC721Enumerable-totalSupply}."
      },
      "transferFrom(address,address,uint256)": {
        "details": "See {IERC721-transferFrom}."
      },
      "transferOwnership(address)": {
        "details": "Transfers ownership of the contract to a new account (`newOwner`). Can only be called by the current owner."
      },
      "unlistNft(uint256)": {
        "details": "NFT",
        "params": {
          "tokenId": "NFTToken ID"
        }
      },
      "updateListingFeePercentage(uint256)": {
        "details": "",
        "params": {
          "newListingFeePercentage": ""
        }
      },
      "withdrawFees()": {
        "details": ""
      }
    },
    "version": 1
  },
  "userdoc": {
    "kind": "user",
    "methods": {},
    "version": 1
  },
  "storageLayout": {
    "storage": [
      {
        "astId": 1916,
        "contract": "contracts/YourCollectible.sol:YourCollectible",
        "label": "_defaultRoyaltyInfo",
        "offset": 0,
        "slot": "0",
        "type": "t_struct(RoyaltyInfo)1913_storage"
      },
      {
        "astId": 1921,
        "contract": "contracts/YourCollectible.sol:YourCollectible",
        "label": "_tokenRoyaltyInfo",
        "offset": 0,
        "slot": "1",
        "type": "t_mapping(t_uint256,t_struct(RoyaltyInfo)1913_storage)"
      },
      {
        "astId": 250,
        "contract": "contracts/YourCollectible.sol:YourCollectible",
        "label": "_name",
        "offset": 0,
        "slot": "2",
        "type": "t_string_storage"
      },
      {
        "astId": 252,
        "contract": "contracts/YourCollectible.sol:YourCollectible",
        "label": "_symbol",
        "offset": 0,
        "slot": "3",
        "type": "t_string_storage"
      },
      {
        "astId": 256,
        "contract": "contracts/YourCollectible.sol:YourCollectible",
        "label": "_owners",
        "offset": 0,
        "slot": "4",
        "type": "t_mapping(t_uint256,t_address)"
      },
      {
        "astId": 260,
        "contract": "contracts/YourCollectible.sol:YourCollectible",
        "label": "_balances",
        "offset": 0,
        "slot": "5",
        "type": "t_mapping(t_address,t_uint256)"
      },
      {
        "astId": 264,
        "contract": "contracts/YourCollectible.sol:YourCollectible",
        "label": "_tokenApprovals",
        "offset": 0,
        "slot": "6",
        "type": "t_mapping(t_uint256,t_address)"
      },
      {
        "astId": 270,
        "contract": "contracts/YourCollectible.sol:YourCollectible",
        "label": "_operatorApprovals",
        "offset": 0,
        "slot": "7",
        "type": "t_mapping(t_address,t_mapping(t_address,t_bool))"
      },
      {
        "astId": 1300,
        "contract": "contracts/YourCollectible.sol:YourCollectible",
        "label": "_ownedTokens",
        "offset": 0,
        "slot": "8",
        "type": "t_mapping(t_address,t_mapping(t_uint256,t_uint256))"
      },
      {
        "astId": 1304,
        "contract": "contracts/YourCollectible.sol:YourCollectible",
        "label": "_ownedTokensIndex",
        "offset": 0,
        "slot": "9",
        "type": "t_mapping(t_uint256,t_uint256)"
      },
      {
        "astId": 1307,
        "contract": "contracts/YourCollectible.sol:YourCollectible",
        "label": "_allTokens",
        "offset": 0,
        "slot": "10",
        "type": "t_array(t_uint256)dyn_storage"
      },
      {
        "astId": 1311,
        "contract": "contracts/YourCollectible.sol:YourCollectible",
        "label": "_allTokensIndex",
        "offset": 0,
        "slot": "11",
        "type": "t_mapping(t_uint256,t_uint256)"
      },
      {
        "astId": 1701,
        "contract": "contracts/YourCollectible.sol:YourCollectible",
        "label": "_tokenURIs",
        "offset": 0,
        "slot": "12",
        "type": "t_mapping(t_uint256,t_string_storage)"
      },
      {
        "astId": 7,
        "contract": "contracts/YourCollectible.sol:YourCollectible",
        "label": "_owner",
        "offset": 0,
        "slot": "13",
        "type": "t_address"
      },
      {
        "astId": 170,
        "contract": "contracts/YourCollectible.sol:YourCollectible",
        "label": "_status",
        "offset": 0,
        "slot": "14",
        "type": "t_uint256"
      },
      {
        "astId": 3795,
        "contract": "contracts/YourCollectible.sol:YourCollectible",
        "label": "tokenIdCounter",
        "offset": 0,
        "slot": "15",
        "type": "t_struct(Counter)2463_storage"
      },
      {
        "astId": 3797,
        "contract": "contracts/YourCollectible.sol:YourCollectible",
        "label": "totalFeesCollected",
        "offset": 0,
        "slot": "16",
        "type": "t_uint256"
      },
      {
        "astId": 3841,
        "contract": "contracts/YourCollectible.sol:YourCollectible",
        "label": "_idToNftItem",
        "offset": 0,
        "slot": "17",
        "type": "t_mapping(t_uint256,t_struct(NftItem)3810_storage)"
      },
      {
        "astId": 3846,
        "contract": "contracts/YourCollectible.sol:YourCollectible",
        "label": "_idToAuction",
        "offset": 0,
        "slot": "18",
        "type": "t_mapping(t_uint256,t_struct(Auction)3825_storage)"
      },
      {
        "astId": 3849,
        "contract": "contracts/YourCollectible.sol:YourCollectible",
        "label": "_auctionedTokenIds",
        "offset": 0,
        "slot": "19",
        "type": "t_array(t_uint256)dyn_storage"
      },
      {
        "astId": 3853,
        "contract": "contracts/YourCollectible.sol:YourCollectible",
        "label": "_usedTokenURIs",
        "offset": 0,
        "slot": "20",
        "type": "t_mapping(t_string_memory_ptr,t_bool)"
      },
      {
        "astId": 3856,
        "contract": "contracts/YourCollectible.sol:YourCollectible",
        "label": "_listedTokenIds",
        "offset": 0,
        "slot": "21",
        "type": "t_array(t_uint256)dyn_storage"
      },
      {
        "astId": 3860,
        "contract": "contracts/YourCollectible.sol:YourCollectible",
        "label": "_tokenIdToListedIndex",
        "offset": 0,
        "slot": "22",
        "type": "t_mapping(t_uint256,t_uint256)"
      },
      {
        "astId": 3863,
        "contract": "contracts/YourCollectible.sol:YourCollectible",
        "label": "listingFeePercentage",
        "offset": 0,
        "slot": "23",
        "type": "t_uint256"
      },
      {
        "astId": 3872,
        "contract": "contracts/YourCollectible.sol:YourCollectible",
        "label": "_tradeHistories",
        "offset": 0,
        "slot": "24",
        "type": "t_mapping(t_uint256,t_array(t_struct(TradeHistory)3836_storage)dyn_storage)"
      }
    ],
    "types": {
      "t_address": {
        "encoding": "inplace",
        "label": "address",
        "numberOfBytes": "20"
      },
      "t_address_payable": {
        "encoding": "inplace",
        "label": "address payable",
        "numberOfBytes": "20"
      },
      "t_array(t_struct(TradeHistory)3836_storage)dyn_storage": {
        "base": "t_struct(TradeHistory)3836_storage",
        "encoding": "dynamic_array",
        "label": "struct YourCollectible.TradeHistory[]",
        "numberOfBytes": "32"
      },
      "t_array(t_uint256)dyn_storage": {
        "base": "t_uint256",
        "encoding": "dynamic_array",
        "label": "uint256[]",
        "numberOfBytes": "32"
      },
      "t_bool": {
        "encoding": "inplace",
        "label": "bool",
        "numberOfBytes": "1"
      },
      "t_mapping(t_address,t_bool)": {
        "encoding": "mapping",
        "key": "t_address",
        "label": "mapping(address => bool)",
        "numberOfBytes": "32",
        "value": "t_bool"
      },
      "t_mapping(t_address,t_mapping(t_address,t_bool))": {
        "encoding": "mapping",
        "key": "t_address",
        "label": "mapping(address => mapping(address => bool))",
        "numberOfBytes": "32",
        "value": "t_mapping(t_address,t_bool)"
      },
      "t_mapping(t_address,t_mapping(t_uint256,t_uint256))": {
        "encoding": "mapping",
        "key": "t_address",
        "label": "mapping(address => mapping(uint256 => uint256))",
        "numberOfBytes": "32",
        "value": "t_mapping(t_uint256,t_uint256)"
      },
      "t_mapping(t_address,t_uint256)": {
        "encoding": "mapping",
        "key": "t_address",
        "label": "mapping(address => uint256)",
        "numberOfBytes": "32",
        "value": "t_uint256"
      },
      "t_mapping(t_string_memory_ptr,t_bool)": {
        "encoding": "mapping",
        "key": "t_string_memory_ptr",
        "label": "mapping(string => bool)",
        "numberOfBytes": "32",
        "value": "t_bool"
      },
      "t_mapping(t_uint256,t_address)": {
        "encoding": "mapping",
        "key": "t_uint256",
        "label": "mapping(uint256 => address)",
        "numberOfBytes": "32",
        "value": "t_address"
      },
      "t_mapping(t_uint256,t_array(t_struct(TradeHistory)3836_storage)dyn_storage)": {
        "encoding": "mapping",
        "key": "t_uint256",
        "label": "mapping(uint256 => struct YourCollectible.TradeHistory[])",
        "numberOfBytes": "32",
        "value": "t_array(t_struct(TradeHistory)3836_storage)dyn_storage"
      },
      "t_mapping(t_uint256,t_string_storage)": {
        "encoding": "mapping",
        "key": "t_uint256",
        "label": "mapping(uint256 => string)",
        "numberOfBytes": "32",
        "value": "t_string_storage"
      },
      "t_mapping(t_uint256,t_struct(Auction)3825_storage)": {
        "encoding": "mapping",
        "key": "t_uint256",
        "label": "mapping(uint256 => struct YourCollectible.Auction)",
        "numberOfBytes": "32",
        "value": "t_struct(Auction)3825_storage"
      },
      "t_mapping(t_uint256,t_struct(NftItem)3810_storage)": {
        "encoding": "mapping",
        "key": "t_uint256",
        "label": "mapping(uint256 => struct YourCollectible.NftItem)",
        "numberOfBytes": "32",
        "value": "t_struct(NftItem)3810_storage"
      },
      "t_mapping(t_uint256,t_struct(RoyaltyInfo)1913_storage)": {
        "encoding": "mapping",
        "key": "t_uint256",
        "label": "mapping(uint256 => struct ERC2981.RoyaltyInfo)",
        "numberOfBytes": "32",
        "value": "t_struct(RoyaltyInfo)1913_storage"
      },
      "t_mapping(t_uint256,t_uint256)": {
        "encoding": "mapping",
        "key": "t_uint256",
        "label": "mapping(uint256 => uint256)",
        "numberOfBytes": "32",
        "value": "t_uint256"
      },
      "t_string_memory_ptr": {
        "encoding": "bytes",
        "label": "string",
        "numberOfBytes": "32"
      },
      "t_string_storage": {
        "encoding": "bytes",
        "label": "string",
        "numberOfBytes": "32"
      },
      "t_struct(Auction)3825_storage": {
        "encoding": "inplace",
        "label": "struct YourCollectible.Auction",
        "members": [
          {
            "astId": 3812,
            "contract": "contracts/YourCollectible.sol:YourCollectible",
            "label": "tokenId",
            "offset": 0,
            "slot": "0",
            "type": "t_uint256"
          },
          {
            "astId": 3814,
            "contract": "contracts/YourCollectible.sol:YourCollectible",
            "label": "seller",
            "offset": 0,
            "slot": "1",
            "type": "t_address_payable"
          },
          {
            "astId": 3816,
            "contract": "contracts/YourCollectible.sol:YourCollectible",
            "label": "startingBid",
            "offset": 0,
            "slot": "2",
            "type": "t_uint256"
          },
          {
            "astId": 3818,
            "contract": "contracts/YourCollectible.sol:YourCollectible",
            "label": "currentBid",
            "offset": 0,
            "slot": "3",
            "type": "t_uint256"
          },
          {
            "astId": 3820,
            "contract": "contracts/YourCollectible.sol:YourCollectible",
            "label": "highestBidder",
            "offset": 0,
            "slot": "4",
            "type": "t_address_payable"
          },
          {
            "astId": 3822,
            "contract": "contracts/YourCollectible.sol:YourCollectible",
            "label": "endTime",
            "offset": 0,
            "slot": "5",
            "type": "t_uint256"
          },
          {
            "astId": 3824,
            "contract": "contracts/YourCollectible.sol:YourCollectible",
            "label": "isActive",
            "offset": 0,
            "slot": "6",
            "type": "t_bool"
          }
        ],
        "numberOfBytes": "224"
      },
      "t_struct(Counter)2463_storage": {
        "encoding": "inplace",
        "label": "struct Counters.Counter",
        "members": [
          {
            "astId": 2462,
            "contract": "contracts/YourCollectible.sol:YourCollectible",
            "label": "_value",
            "offset": 0,
            "slot": "0",
            "type": "t_uint256"
          }
        ],
        "numberOfBytes": "32"
      },
      "t_struct(NftItem)3810_storage": {
        "encoding": "inplace",
        "label": "struct YourCollectible.NftItem",
        "members": [
          {
            "astId": 3799,
            "contract": "contracts/YourCollectible.sol:YourCollectible",
            "label": "tokenId",
            "offset": 0,
            "slot": "0",
            "type": "t_uint256"
          },
          {
            "astId": 3801,
            "contract": "contracts/YourCollectible.sol:YourCollectible",
            "label": "price",
            "offset": 0,
            "slot": "1",
            "type": "t_uint256"
          },
          {
            "astId": 3803,
            "contract": "contracts/YourCollectible.sol:YourCollectible",
            "label": "seller",
            "offset": 0,
            "slot": "2",
            "type": "t_address_payable"
          },
          {
            "astId": 3805,
            "contract": "contracts/YourCollectible.sol:YourCollectible",
            "label": "isListed",
            "offset": 20,
            "slot": "2",
            "type": "t_bool"
          },
          {
            "astId": 3807,
            "contract": "contracts/YourCollectible.sol:YourCollectible",
            "label": "tokenUri",
            "offset": 0,
            "slot": "3",
            "type": "t_string_storage"
          },
          {
            "astId": 3809,
            "contract": "contracts/YourCollectible.sol:YourCollectible",
            "label": "expirationTime",
            "offset": 0,
            "slot": "4",
            "type": "t_uint256"
          }
        ],
        "numberOfBytes": "160"
      },
      "t_struct(RoyaltyInfo)1913_storage": {
        "encoding": "inplace",
        "label": "struct ERC2981.RoyaltyInfo",
        "members": [
          {
            "astId": 1910,
            "contract": "contracts/YourCollectible.sol:YourCollectible",
            "label": "receiver",
            "offset": 0,
            "slot": "0",
            "type": "t_address"
          },
          {
            "astId": 1912,
            "contract": "contracts/YourCollectible.sol:YourCollectible",
            "label": "royaltyFraction",
            "offset": 20,
            "slot": "0",
            "type": "t_uint96"
          }
        ],
        "numberOfBytes": "32"
      },
      "t_struct(TradeHistory)3836_storage": {
        "encoding": "inplace",
        "label": "struct YourCollectible.TradeHistory",
        "members": [
          {
            "astId": 3827,
            "contract": "contracts/YourCollectible.sol:YourCollectible",
            "label": "from",
            "offset": 0,
            "slot": "0",
            "type": "t_address"
          },
          {
            "astId": 3829,
            "contract": "contracts/YourCollectible.sol:YourCollectible",
            "label": "to",
            "offset": 0,
            "slot": "1",
            "type": "t_address"
          },
          {
            "astId": 3831,
            "contract": "contracts/YourCollectible.sol:YourCollectible",
            "label": "price",
            "offset": 0,
            "slot": "2",
            "type": "t_uint256"
          },
          {
            "astId": 3833,
            "contract": "contracts/YourCollectible.sol:YourCollectible",
            "label": "royalty",
            "offset": 0,
            "slot": "3",
            "type": "t_uint256"
          },
          {
            "astId": 3835,
            "contract": "contracts/YourCollectible.sol:YourCollectible",
            "label": "timestamp",
            "offset": 0,
            "slot": "4",
            "type": "t_uint256"
          }
        ],
        "numberOfBytes": "160"
      },
      "t_uint256": {
        "encoding": "inplace",
        "label": "uint256",
        "numberOfBytes": "32"
      },
      "t_uint96": {
        "encoding": "inplace",
        "label": "uint96",
        "numberOfBytes": "12"
      }
    }
  }
}